{
  "_format": "hh-sol-artifact-1",
  "contractName": "SUIDutchAuctionResolver",
  "sourceName": "contracts/SUIDutchAuctionResolver.sol",
  "abi": [
    {
      "inputs": [
        {
          "internalType": "address",
          "name": "_settlement",
          "type": "address"
        }
      ],
      "stateMutability": "nonpayable",
      "type": "constructor"
    },
    {
      "inputs": [
        {
          "internalType": "address",
          "name": "owner",
          "type": "address"
        }
      ],
      "name": "OwnableInvalidOwner",
      "type": "error"
    },
    {
      "inputs": [
        {
          "internalType": "address",
          "name": "account",
          "type": "address"
        }
      ],
      "name": "OwnableUnauthorizedAccount",
      "type": "error"
    },
    {
      "inputs": [],
      "name": "ReentrancyGuardReentrantCall",
      "type": "error"
    },
    {
      "anonymous": false,
      "inputs": [
        {
          "indexed": true,
          "internalType": "bytes32",
          "name": "orderHash",
          "type": "bytes32"
        },
        {
          "indexed": true,
          "internalType": "address",
          "name": "seller",
          "type": "address"
        },
        {
          "indexed": false,
          "internalType": "uint256",
          "name": "startPrice",
          "type": "uint256"
        },
        {
          "indexed": false,
          "internalType": "uint256",
          "name": "endPrice",
          "type": "uint256"
        }
      ],
      "name": "AuctionOrderCreated",
      "type": "event"
    },
    {
      "anonymous": false,
      "inputs": [
        {
          "indexed": true,
          "internalType": "address",
          "name": "escrow",
          "type": "address"
        },
        {
          "indexed": true,
          "internalType": "address",
          "name": "winner",
          "type": "address"
        },
        {
          "indexed": false,
          "internalType": "uint256",
          "name": "amount",
          "type": "uint256"
        }
      ],
      "name": "AuctionSettled",
      "type": "event"
    },
    {
      "anonymous": false,
      "inputs": [
        {
          "indexed": true,
          "internalType": "bytes32",
          "name": "orderHash",
          "type": "bytes32"
        },
        {
          "indexed": true,
          "internalType": "address",
          "name": "seller",
          "type": "address"
        },
        {
          "indexed": false,
          "internalType": "uint256",
          "name": "finalPrice",
          "type": "uint256"
        },
        {
          "indexed": false,
          "internalType": "uint256",
          "name": "settledAmount",
          "type": "uint256"
        }
      ],
      "name": "FusionOrderFilled",
      "type": "event"
    },
    {
      "anonymous": false,
      "inputs": [
        {
          "indexed": true,
          "internalType": "bytes32",
          "name": "orderId",
          "type": "bytes32"
        },
        {
          "indexed": true,
          "internalType": "address",
          "name": "winner",
          "type": "address"
        },
        {
          "indexed": false,
          "internalType": "uint256",
          "name": "finalPrice",
          "type": "uint256"
        },
        {
          "indexed": false,
          "internalType": "string",
          "name": "secretHash",
          "type": "string"
        }
      ],
      "name": "OrderResolved",
      "type": "event"
    },
    {
      "anonymous": false,
      "inputs": [
        {
          "indexed": true,
          "internalType": "address",
          "name": "previousOwner",
          "type": "address"
        },
        {
          "indexed": true,
          "internalType": "address",
          "name": "newOwner",
          "type": "address"
        }
      ],
      "name": "OwnershipTransferred",
      "type": "event"
    },
    {
      "inputs": [
        {
          "internalType": "address",
          "name": "operator",
          "type": "address"
        }
      ],
      "name": "addOperator",
      "outputs": [],
      "stateMutability": "nonpayable",
      "type": "function"
    },
    {
      "inputs": [
        {
          "internalType": "bytes32",
          "name": "",
          "type": "bytes32"
        }
      ],
      "name": "auctionOrders",
      "outputs": [
        {
          "internalType": "address",
          "name": "seller",
          "type": "address"
        },
        {
          "internalType": "uint256",
          "name": "startPrice",
          "type": "uint256"
        },
        {
          "internalType": "uint256",
          "name": "endPrice",
          "type": "uint256"
        },
        {
          "internalType": "uint256",
          "name": "duration",
          "type": "uint256"
        },
        {
          "internalType": "uint256",
          "name": "startTime",
          "type": "uint256"
        },
        {
          "internalType": "bool",
          "name": "isActive",
          "type": "bool"
        },
        {
          "internalType": "address",
          "name": "escrowContract",
          "type": "address"
        },
        {
          "internalType": "bytes32",
          "name": "secretHash",
          "type": "bytes32"
        }
      ],
      "stateMutability": "view",
      "type": "function"
    },
    {
      "inputs": [
        {
          "internalType": "address",
          "name": "",
          "type": "address"
        }
      ],
      "name": "authorizedOperators",
      "outputs": [
        {
          "internalType": "bool",
          "name": "",
          "type": "bool"
        }
      ],
      "stateMutability": "view",
      "type": "function"
    },
    {
      "inputs": [
        {
          "internalType": "bytes32",
          "name": "orderHash",
          "type": "bytes32"
        }
      ],
      "name": "canResolveOrder",
      "outputs": [
        {
          "internalType": "bool",
          "name": "",
          "type": "bool"
        }
      ],
      "stateMutability": "view",
      "type": "function"
    },
    {
      "inputs": [
        {
          "internalType": "bytes32",
          "name": "orderHash",
          "type": "bytes32"
        },
        {
          "internalType": "address",
          "name": "seller",
          "type": "address"
        },
        {
          "internalType": "uint256",
          "name": "startPrice",
          "type": "uint256"
        },
        {
          "internalType": "uint256",
          "name": "endPrice",
          "type": "uint256"
        },
        {
          "internalType": "uint256",
          "name": "duration",
          "type": "uint256"
        },
        {
          "internalType": "address",
          "name": "escrowContract",
          "type": "address"
        },
        {
          "internalType": "bytes32",
          "name": "secretHash",
          "type": "bytes32"
        }
      ],
      "name": "createAuctionOrder",
      "outputs": [],
      "stateMutability": "nonpayable",
      "type": "function"
    },
    {
      "inputs": [
        {
          "internalType": "bytes32",
          "name": "orderId",
          "type": "bytes32"
        }
      ],
      "name": "emergencyResolve",
      "outputs": [],
      "stateMutability": "nonpayable",
      "type": "function"
    },
    {
      "inputs": [
        {
          "internalType": "bytes32",
          "name": "orderHash",
          "type": "bytes32"
        }
      ],
      "name": "getAuctionOrder",
      "outputs": [
        {
          "internalType": "address",
          "name": "seller",
          "type": "address"
        },
        {
          "internalType": "uint256",
          "name": "startPrice",
          "type": "uint256"
        },
        {
          "internalType": "uint256",
          "name": "endPrice",
          "type": "uint256"
        },
        {
          "internalType": "uint256",
          "name": "duration",
          "type": "uint256"
        },
        {
          "internalType": "uint256",
          "name": "startTime",
          "type": "uint256"
        },
        {
          "internalType": "bool",
          "name": "isActive",
          "type": "bool"
        },
        {
          "internalType": "address",
          "name": "escrowContract",
          "type": "address"
        },
        {
          "internalType": "bytes32",
          "name": "secretHash",
          "type": "bytes32"
        }
      ],
      "stateMutability": "view",
      "type": "function"
    },
    {
      "inputs": [
        {
          "internalType": "bytes32",
          "name": "orderHash",
          "type": "bytes32"
        }
      ],
      "name": "getCurrentPrice",
      "outputs": [
        {
          "internalType": "uint256",
          "name": "",
          "type": "uint256"
        }
      ],
      "stateMutability": "view",
      "type": "function"
    },
    {
      "inputs": [
        {
          "internalType": "bytes32",
          "name": "orderHash",
          "type": "bytes32"
        }
      ],
      "name": "getOrderStatus",
      "outputs": [
        {
          "internalType": "bool",
          "name": "isActive",
          "type": "bool"
        },
        {
          "internalType": "bool",
          "name": "isResolved",
          "type": "bool"
        },
        {
          "internalType": "address",
          "name": "winner",
          "type": "address"
        },
        {
          "internalType": "uint256",
          "name": "finalPrice",
          "type": "uint256"
        },
        {
          "internalType": "uint256",
          "name": "currentPrice",
          "type": "uint256"
        },
        {
          "internalType": "uint256",
          "name": "timeRemaining",
          "type": "uint256"
        }
      ],
      "stateMutability": "view",
      "type": "function"
    },
    {
      "inputs": [
        {
          "internalType": "bytes32",
          "name": "orderId",
          "type": "bytes32"
        }
      ],
      "name": "isOrderResolved",
      "outputs": [
        {
          "internalType": "bool",
          "name": "",
          "type": "bool"
        }
      ],
      "stateMutability": "view",
      "type": "function"
    },
    {
      "inputs": [],
      "name": "owner",
      "outputs": [
        {
          "internalType": "address",
          "name": "",
          "type": "address"
        }
      ],
      "stateMutability": "view",
      "type": "function"
    },
    {
      "inputs": [
        {
          "internalType": "address",
          "name": "operator",
          "type": "address"
        }
      ],
      "name": "removeOperator",
      "outputs": [],
      "stateMutability": "nonpayable",
      "type": "function"
    },
    {
      "inputs": [],
      "name": "renounceOwnership",
      "outputs": [],
      "stateMutability": "nonpayable",
      "type": "function"
    },
    {
      "inputs": [
        {
          "components": [
            {
              "internalType": "uint256",
              "name": "salt",
              "type": "uint256"
            },
            {
              "internalType": "address",
              "name": "makerAsset",
              "type": "address"
            },
            {
              "internalType": "address",
              "name": "takerAsset",
              "type": "address"
            },
            {
              "internalType": "address",
              "name": "maker",
              "type": "address"
            },
            {
              "internalType": "address",
              "name": "receiver",
              "type": "address"
            },
            {
              "internalType": "address",
              "name": "allowedSender",
              "type": "address"
            },
            {
              "internalType": "uint256",
              "name": "makingAmount",
              "type": "uint256"
            },
            {
              "internalType": "uint256",
              "name": "takingAmount",
              "type": "uint256"
            },
            {
              "internalType": "uint256",
              "name": "offsets",
              "type": "uint256"
            },
            {
              "internalType": "bytes",
              "name": "interactions",
              "type": "bytes"
            }
          ],
          "internalType": "struct IFusionOrder.Order",
          "name": "order",
          "type": "tuple"
        },
        {
          "internalType": "bytes",
          "name": "",
          "type": "bytes"
        },
        {
          "components": [
            {
              "internalType": "address",
              "name": "winner",
              "type": "address"
            },
            {
              "internalType": "uint256",
              "name": "finalPrice",
              "type": "uint256"
            },
            {
              "internalType": "string",
              "name": "secretHash",
              "type": "string"
            },
            {
              "internalType": "address",
              "name": "escrowContract",
              "type": "address"
            },
            {
              "internalType": "bytes",
              "name": "orderData",
              "type": "bytes"
            }
          ],
          "internalType": "struct SUIDutchAuctionResolver.AuctionResult",
          "name": "auctionResult",
          "type": "tuple"
        }
      ],
      "name": "resolveOrder",
      "outputs": [],
      "stateMutability": "nonpayable",
      "type": "function"
    },
    {
      "inputs": [
        {
          "internalType": "bytes32",
          "name": "",
          "type": "bytes32"
        }
      ],
      "name": "resolvedOrders",
      "outputs": [
        {
          "internalType": "bool",
          "name": "",
          "type": "bool"
        }
      ],
      "stateMutability": "view",
      "type": "function"
    },
    {
      "inputs": [],
      "name": "settlement",
      "outputs": [
        {
          "internalType": "contract IFusionOrder",
          "name": "",
          "type": "address"
        }
      ],
      "stateMutability": "view",
      "type": "function"
    },
    {
      "inputs": [
        {
          "internalType": "address",
          "name": "newOwner",
          "type": "address"
        }
      ],
      "name": "transferOwnership",
      "outputs": [],
      "stateMutability": "nonpayable",
      "type": "function"
    }
  ],
  "bytecode": "0x60a060405234801561001057600080fd5b5060405162001694380380620016948339810160408190526100319161012f565b6001600055338061005d57604051631e4fbdf760e01b8152600060048201526024015b60405180910390fd5b610066816100dd565b506001600160a01b0381166100b25760405162461bcd60e51b8152602060048201526012602482015271125b9d985b1a59081cd95d1d1b195b595b9d60721b6044820152606401610054565b6001600160a01b0316608052336000908152600460205260409020805460ff1916600117905561015f565b600180546001600160a01b038381166001600160a01b0319831681179093556040519116919082907f8be0079c531659141344cd1fd0a4f28419497f9722a3daafe3b4186f6b6457e090600090a35050565b60006020828403121561014157600080fd5b81516001600160a01b038116811461015857600080fd5b9392505050565b6080516115196200017b60003960006102a601526115196000f3fe608060405234801561001057600080fd5b506004361061010b5760003560e01c80638da5cb5b116100a2578063b027ca3f11610071578063b027ca3f14610332578063c66bd1d7146103d3578063e07bec88146103e6578063e73380fe14610409578063f2fde38b1461041c57600080fd5b80638da5cb5b146102e85780639870d7fe146102f9578063ac8a584a1461030c578063ac8b63041461031f57600080fd5b80633965f553116100de5780633965f5531461023c57806346423aa71461025157806351160630146102a1578063715018a6146102e057600080fd5b8063161e444e14610110578063181d989b1461013657806319c7f4bd14610169578063329825431461018c575b600080fd5b61012361011e36600461108b565b61042f565b6040519081526020015b60405180910390f35b6101596101443660046110c0565b60046020526000908152604090205460ff1681565b604051901515815260200161012d565b61015961017736600461108b565b60036020526000908152604090205460ff1681565b6101ed61019a36600461108b565b600260208190526000918252604090912080546001820154928201546003830154600484015460058501546006909501546001600160a01b03948516969593949293919260ff8316926101009004169088565b604080516001600160a01b03998a168152602081019890985287019590955260608601939093526080850191909152151560a084015290921660c082015260e08101919091526101000161012d565b61024f61024a3660046110db565b610548565b005b61026461025f36600461108b565b61082e565b60408051961515875294151560208701526001600160a01b03909316938501939093526060840152608083019190915260a082015260c00161012d565b6102c87f000000000000000000000000000000000000000000000000000000000000000081565b6040516001600160a01b03909116815260200161012d565b61024f61095f565b6001546001600160a01b03166102c8565b61024f6103073660046110c0565b610973565b61024f61031a3660046110c0565b61099f565b61015961032d36600461108b565b6109c8565b6101ed61034036600461108b565b6000908152600260208181526040928390208351610100808201865282546001600160a01b03908116808452600185015495840186905295840154968301879052600384015460608401819052600485015460808501819052600586015460ff8116151560a0870181905294900490921660c0850181905260069095015460e09094018490529597949695949093919290565b61024f6103e136600461108b565b610a85565b6101596103f436600461108b565b60009081526003602052604090205460ff1690565b61024f610417366004611156565b610aa8565b61024f61042a3660046110c0565b610d29565b60008181526002602081815260408084208151610100808201845282546001600160a01b03908116835260018401549583019590955294820154928101929092526003810154606083015260048101546080830152600581015460ff811615801560a085015294900490921660c082015260069091015460e082015290806104c5575060008381526003602052604090205460ff165b156104d35750600092915050565b60008160800151426104e59190611231565b9050816060015181106104fd57506040015192915050565b6000826060015182846040015185602001516105199190611231565b610523919061124a565b61052d9190611261565b905080836020015161053f9190611231565b95945050505050565b3360009081526004602052604090205460ff168061057057506001546001600160a01b031633145b6105b25760405162461bcd60e51b815260206004820152600e60248201526d139bdd08185d5d1a1bdc9a5e995960921b60448201526064015b60405180910390fd5b866105f45760405162461bcd60e51b8152602060048201526012602482015271092dcecc2d8d2c840dee4c8cae440d0c2e6d60731b60448201526064016105a9565b6001600160a01b03861661063b5760405162461bcd60e51b815260206004820152600e60248201526d24b73b30b634b21039b2b63632b960911b60448201526064016105a9565b8385116106805760405162461bcd60e51b8152602060048201526013602482015272496e76616c69642070726963652072616e676560681b60448201526064016105a9565b6001600160a01b0382166106c75760405162461bcd60e51b815260206004820152600e60248201526d496e76616c696420657363726f7760901b60448201526064016105a9565b604051806101000160405280876001600160a01b03168152602001868152602001858152602001848152602001428152602001600115158152602001836001600160a01b03168152602001828152506002600089815260200190815260200160002060008201518160000160006101000a8154816001600160a01b0302191690836001600160a01b031602179055506020820151816001015560408201518160020155606082015181600301556080820151816004015560a08201518160050160006101000a81548160ff02191690831515021790555060c08201518160050160016101000a8154816001600160a01b0302191690836001600160a01b0316021790555060e08201518160060155905050856001600160a01b0316877fd7b7235546948ab91425fe4cb13f22e85f921f32f053e9414186a32a8be4ed6d878760405161081d929190918252602082015260400190565b60405180910390a350505050505050565b60008181526002602081815260408084208151610100808201845282546001600160a01b039081168352600184015483870152958301548285015260038084015460608401526004808501546080850152600585015460ff808216151560a087018190529490910490981660c085015260069094015460e0840152888852909452828620549251630b0f222760e11b8152918201879052929491909316929091829182918291309063161e444e90602401602060405180830381865afa1580156108fc573d6000803e3d6000fd5b505050506040513d601f19601f820116820180604052508101906109209190611283565b9250600081606001518260800151610938919061129c565b9050804210610948576000610952565b6109524282611231565b9250505091939550919395565b610967610d67565b6109716000610d94565b565b61097b610d67565b6001600160a01b03166000908152600460205260409020805460ff19166001179055565b6109a7610d67565b6001600160a01b03166000908152600460205260409020805460ff19169055565b60008181526002602081815260408084208151610100808201845282546001600160a01b03908116835260018401549583019590955294820154928101929092526003810154606083015260048101546080830152600581015460ff811615801560a085018190529590910490931660c08301526006015460e08201529190610a60575060008381526003602052604090205460ff16155b8015610a7e575080606001518160800151610a7b919061129c565b42105b9392505050565b610a8d610d67565b6000908152600360205260409020805460ff19166001179055565b610ab0610de6565b3360009081526004602052604090205460ff1680610ad857506001546001600160a01b031633145b610b155760405162461bcd60e51b815260206004820152600e60248201526d139bdd08185d5d1a1bdc9a5e995960921b60448201526064016105a9565b600084604051602001610b289190611325565b60408051601f1981840301815291815281516020928301206000818152600390935291205490915060ff1615610b995760405162461bcd60e51b815260206004820152601660248201527513dc99195c88185b1c9958591e481c995cdbdb1d995960521b60448201526064016105a9565b60008181526003602090815260408220805460ff19166001179055610bc0908401846110c0565b6001600160a01b031603610c075760405162461bcd60e51b815260206004820152600e60248201526d24b73b30b634b2103bb4b73732b960911b60448201526064016105a9565b6000826020013511610c4b5760405162461bcd60e51b815260206004820152600d60248201526c496e76616c696420707269636560981b60448201526064016105a9565b6000610c5d60808401606085016110c0565b6001600160a01b031603610ca45760405162461bcd60e51b815260206004820152600e60248201526d496e76616c696420657363726f7760901b60448201526064016105a9565b610cae8583610e10565b610cb782610f80565b610cc460208301836110c0565b6001600160a01b0316817f27246cffe15e161830f6dce82816fed26cdf28c6cf6e92d50ba002f840635aed6020850135610d016040870187611405565b604051610d109392919061144c565b60405180910390a350610d236001600055565b50505050565b610d31610d67565b6001600160a01b038116610d5b57604051631e4fbdf760e01b8152600060048201526024016105a9565b610d6481610d94565b50565b6001546001600160a01b031633146109715760405163118cdaa760e01b81523360048201526024016105a9565b600180546001600160a01b038381166001600160a01b0319831681179093556040519116919082907f8be0079c531659141344cd1fd0a4f28419497f9722a3daafe3b4186f6b6457e090600090a35050565b600260005403610e0957604051633ee5aeb560e01b815260040160405180910390fd5b6002600055565b6000610e2260408401602085016110c0565b90506001600160a01b0381166323b872dd610e4360808601606087016110c0565b610e5060208601866110c0565b6040516001600160e01b031960e085901b1681526001600160a01b03928316600482015291166024820152602085013560448201526064016020604051808303816000875af1158015610ea7573d6000803e3d6000fd5b505050506040513d601f19601f82011682018060405250810190610ecb9190611466565b610f0f5760405162461bcd60e51b8152602060048201526015602482015274151bdad95b881d1c985b9cd9995c8819985a5b1959605a1b60448201526064016105a9565b610f1c60208301836110c0565b6001600160a01b0316610f3560808401606085016110c0565b6001600160a01b03167f451a20205f335d702bd59a3ab3774aa167020f7812aa82f59eff9286df8ed0db8460200135604051610f7391815260200190565b60405180910390a3505050565b6000610f9260808301606084016110c0565b6001600160a01b0316610fa86040840184611405565b610fb560208601866110c0565b604051602401610fc793929190611488565b60408051601f198184030181529181526020820180516001600160e01b03166309946e5d60e31b17905251610ffc91906114b4565b6000604051808303816000865af19150503d8060008114611039576040519150601f19603f3d011682016040523d82523d6000602084013e61103e565b606091505b50509050806110875760405162461bcd60e51b8152602060048201526015602482015274115cd8dc9bddc81c995b19585cd94819985a5b1959605a1b60448201526064016105a9565b5050565b60006020828403121561109d57600080fd5b5035919050565b80356001600160a01b03811681146110bb57600080fd5b919050565b6000602082840312156110d257600080fd5b610a7e826110a4565b600080600080600080600060e0888a0312156110f657600080fd5b87359650611106602089016110a4565b955060408801359450606088013593506080880135925061112960a089016110a4565b915060c0880135905092959891949750929550565b600060a0828403121561115057600080fd5b50919050565b6000806000806060858703121561116c57600080fd5b843567ffffffffffffffff8082111561118457600080fd5b90860190610140828903121561119957600080fd5b909450602086013590808211156111af57600080fd5b818701915087601f8301126111c357600080fd5b8135818111156111d257600080fd5b8860208285010111156111e457600080fd5b60208301955080945050604087013591508082111561120257600080fd5b5061120f8782880161113e565b91505092959194509250565b634e487b7160e01b600052601160045260246000fd5b818103818111156112445761124461121b565b92915050565b80820281158282048414176112445761124461121b565b60008261127e57634e487b7160e01b600052601260045260246000fd5b500490565b60006020828403121561129557600080fd5b5051919050565b808201808211156112445761124461121b565b6000808335601e198436030181126112c657600080fd5b830160208101925035905067ffffffffffffffff8111156112e657600080fd5b8036038213156112f557600080fd5b9250929050565b81835281816020850137506000828201602090810191909152601f909101601f19169091010190565b6020815281356020820152600061133e602084016110a4565b6001600160a01b03811660408401525061135a604084016110a4565b6001600160a01b038116606084015250611376606084016110a4565b6001600160a01b038116608084015250611392608084016110a4565b6001600160a01b03811660a0840152506113ae60a084016110a4565b6001600160a01b03811660c08401525060c083013560e083015261010060e08401358184015261012081850135818501526113eb818601866112af565b610140868101529250905061053f610160850183836112fc565b6000808335601e1984360301811261141c57600080fd5b83018035915067ffffffffffffffff82111561143757600080fd5b6020019150368190038213156112f557600080fd5b83815260406020820152600061053f6040830184866112fc565b60006020828403121561147857600080fd5b81518015158114610a7e57600080fd5b60408152600061149c6040830185876112fc565b905060018060a01b0383166020830152949350505050565b6000825160005b818110156114d557602081860181015185830152016114bb565b50600092019182525091905056fea26469706673582212204ec0923cec8e2ca6067049b25d284987fea495e7d7eab18ee56913b116bff4c364736f6c63430008140033",
  "linkReferences": {},
  "deployedLinkReferences": {}
}