{
  "_format": "hh-sol-artifact-1",
  "contractName": "SUIEscrow",
  "sourceName": "contracts/SUIEscrow.sol",
  "abi": [
    {
      "inputs": [
        {
          "internalType": "address",
          "name": "_usdc",
          "type": "address"
        },
        {
          "internalType": "bytes32",
          "name": "_secretHash",
          "type": "bytes32"
        },
        {
          "internalType": "uint256",
          "name": "_amount",
          "type": "uint256"
        },
        {
          "internalType": "address",
          "name": "_makerAddress",
          "type": "address"
        },
        {
          "internalType": "uint256",
          "name": "_timelock",
          "type": "uint256"
        },
        {
          "internalType": "string",
          "name": "_metadata",
          "type": "string"
        }
      ],
      "stateMutability": "nonpayable",
      "type": "constructor"
    },
    {
      "inputs": [],
      "name": "ReentrancyGuardReentrantCall",
      "type": "error"
    },
    {
      "anonymous": false,
      "inputs": [
        {
          "indexed": true,
          "internalType": "address",
          "name": "maker",
          "type": "address"
        },
        {
          "indexed": false,
          "internalType": "uint256",
          "name": "amount",
          "type": "uint256"
        }
      ],
      "name": "EscrowRefunded",
      "type": "event"
    },
    {
      "anonymous": false,
      "inputs": [
        {
          "indexed": true,
          "internalType": "address",
          "name": "beneficiary",
          "type": "address"
        },
        {
          "indexed": false,
          "internalType": "uint256",
          "name": "amount",
          "type": "uint256"
        }
      ],
      "name": "EscrowReleased",
      "type": "event"
    },
    {
      "anonymous": false,
      "inputs": [
        {
          "indexed": true,
          "internalType": "address",
          "name": "revealer",
          "type": "address"
        },
        {
          "indexed": false,
          "internalType": "string",
          "name": "secret",
          "type": "string"
        }
      ],
      "name": "SecretRevealed",
      "type": "event"
    },
    {
      "inputs": [],
      "name": "REVEAL_WINDOW",
      "outputs": [
        {
          "internalType": "uint256",
          "name": "",
          "type": "uint256"
        }
      ],
      "stateMutability": "view",
      "type": "function"
    },
    {
      "inputs": [],
      "name": "amount",
      "outputs": [
        {
          "internalType": "uint256",
          "name": "",
          "type": "uint256"
        }
      ],
      "stateMutability": "view",
      "type": "function"
    },
    {
      "inputs": [],
      "name": "beneficiary",
      "outputs": [
        {
          "internalType": "address",
          "name": "",
          "type": "address"
        }
      ],
      "stateMutability": "view",
      "type": "function"
    },
    {
      "inputs": [],
      "name": "canRefund",
      "outputs": [
        {
          "internalType": "bool",
          "name": "",
          "type": "bool"
        }
      ],
      "stateMutability": "view",
      "type": "function"
    },
    {
      "inputs": [],
      "name": "canReveal",
      "outputs": [
        {
          "internalType": "bool",
          "name": "",
          "type": "bool"
        }
      ],
      "stateMutability": "view",
      "type": "function"
    },
    {
      "inputs": [],
      "name": "emergencyRefund",
      "outputs": [],
      "stateMutability": "nonpayable",
      "type": "function"
    },
    {
      "inputs": [],
      "name": "getInfo",
      "outputs": [
        {
          "internalType": "bytes32",
          "name": "_secretHash",
          "type": "bytes32"
        },
        {
          "internalType": "uint256",
          "name": "_amount",
          "type": "uint256"
        },
        {
          "internalType": "address",
          "name": "_makerAddress",
          "type": "address"
        },
        {
          "internalType": "uint256",
          "name": "_timelock",
          "type": "uint256"
        },
        {
          "internalType": "string",
          "name": "_metadata",
          "type": "string"
        }
      ],
      "stateMutability": "view",
      "type": "function"
    },
    {
      "inputs": [],
      "name": "getStatus",
      "outputs": [
        {
          "internalType": "bool",
          "name": "_isRevealed",
          "type": "bool"
        },
        {
          "internalType": "bool",
          "name": "_isReleased",
          "type": "bool"
        },
        {
          "internalType": "bool",
          "name": "_isRefunded",
          "type": "bool"
        },
        {
          "internalType": "address",
          "name": "_beneficiary",
          "type": "address"
        },
        {
          "internalType": "uint256",
          "name": "_timeRemaining",
          "type": "uint256"
        }
      ],
      "stateMutability": "view",
      "type": "function"
    },
    {
      "inputs": [],
      "name": "isRefunded",
      "outputs": [
        {
          "internalType": "bool",
          "name": "",
          "type": "bool"
        }
      ],
      "stateMutability": "view",
      "type": "function"
    },
    {
      "inputs": [],
      "name": "isReleased",
      "outputs": [
        {
          "internalType": "bool",
          "name": "",
          "type": "bool"
        }
      ],
      "stateMutability": "view",
      "type": "function"
    },
    {
      "inputs": [],
      "name": "isRevealed",
      "outputs": [
        {
          "internalType": "bool",
          "name": "",
          "type": "bool"
        }
      ],
      "stateMutability": "view",
      "type": "function"
    },
    {
      "inputs": [],
      "name": "makerAddress",
      "outputs": [
        {
          "internalType": "address",
          "name": "",
          "type": "address"
        }
      ],
      "stateMutability": "view",
      "type": "function"
    },
    {
      "inputs": [],
      "name": "metadata",
      "outputs": [
        {
          "internalType": "string",
          "name": "",
          "type": "string"
        }
      ],
      "stateMutability": "view",
      "type": "function"
    },
    {
      "inputs": [],
      "name": "refund",
      "outputs": [],
      "stateMutability": "nonpayable",
      "type": "function"
    },
    {
      "inputs": [],
      "name": "releaseFunds",
      "outputs": [],
      "stateMutability": "nonpayable",
      "type": "function"
    },
    {
      "inputs": [
        {
          "internalType": "string",
          "name": "secret",
          "type": "string"
        },
        {
          "internalType": "address",
          "name": "_beneficiary",
          "type": "address"
        }
      ],
      "name": "revealAndRelease",
      "outputs": [],
      "stateMutability": "nonpayable",
      "type": "function"
    },
    {
      "inputs": [
        {
          "internalType": "string",
          "name": "secret",
          "type": "string"
        },
        {
          "internalType": "address",
          "name": "_beneficiary",
          "type": "address"
        }
      ],
      "name": "revealSecret",
      "outputs": [],
      "stateMutability": "nonpayable",
      "type": "function"
    },
    {
      "inputs": [],
      "name": "revealedSecret",
      "outputs": [
        {
          "internalType": "string",
          "name": "",
          "type": "string"
        }
      ],
      "stateMutability": "view",
      "type": "function"
    },
    {
      "inputs": [],
      "name": "secretHash",
      "outputs": [
        {
          "internalType": "bytes32",
          "name": "",
          "type": "bytes32"
        }
      ],
      "stateMutability": "view",
      "type": "function"
    },
    {
      "inputs": [],
      "name": "timelock",
      "outputs": [
        {
          "internalType": "uint256",
          "name": "",
          "type": "uint256"
        }
      ],
      "stateMutability": "view",
      "type": "function"
    },
    {
      "inputs": [],
      "name": "usdc",
      "outputs": [
        {
          "internalType": "contract IERC20",
          "name": "",
          "type": "address"
        }
      ],
      "stateMutability": "view",
      "type": "function"
    }
  ],
  "bytecode": "0x6101206040523480156200001257600080fd5b5060405162001d8238038062001d82833981016040819052620000359162000251565b60016000556001600160a01b038616620000965760405162461bcd60e51b815260206004820152601460248201527f496e76616c69642055534443206164647265737300000000000000000000000060448201526064015b60405180910390fd5b84620000e55760405162461bcd60e51b815260206004820152601360248201527f496e76616c69642073656372657420686173680000000000000000000000000060448201526064016200008d565b60008411620001375760405162461bcd60e51b815260206004820152601d60248201527f416d6f756e74206d7573742062652067726561746572207468616e203000000060448201526064016200008d565b6001600160a01b0383166200018f5760405162461bcd60e51b815260206004820152601560248201527f496e76616c6964206d616b65722061646472657373000000000000000000000060448201526064016200008d565b428211620001e05760405162461bcd60e51b815260206004820152601a60248201527f54696d656c6f636b206d75737420626520696e2066757475726500000000000060448201526064016200008d565b6001600160a01b0380871660805260a086905260c0859052831660e0526101008290526001620002118282620003f6565b50505050505050620004c2565b80516001600160a01b03811681146200023657600080fd5b919050565b634e487b7160e01b600052604160045260246000fd5b60008060008060008060c087890312156200026b57600080fd5b62000276876200021e565b955060208088015195506040880151945062000295606089016200021e565b608089015160a08a015191955093506001600160401b0380821115620002ba57600080fd5b818a0191508a601f830112620002cf57600080fd5b815181811115620002e457620002e46200023b565b604051601f8201601f19908116603f011681019083821181831017156200030f576200030f6200023b565b816040528281528d868487010111156200032857600080fd5b600093505b828410156200034c57848401860151818501870152928501926200032d565b60008684830101528096505050505050509295509295509295565b600181811c908216806200037c57607f821691505b6020821081036200039d57634e487b7160e01b600052602260045260246000fd5b50919050565b601f821115620003f157600081815260208120601f850160051c81016020861015620003cc5750805b601f850160051c820191505b81811015620003ed57828155600101620003d8565b5050505b505050565b81516001600160401b038111156200041257620004126200023b565b6200042a8162000423845462000367565b84620003a3565b602080601f831160018114620004625760008415620004495750858301515b600019600386901b1c1916600185901b178555620003ed565b600085815260208120601f198616915b82811015620004935788860151825594840194600190910190840162000472565b5085821015620004b25787850151600019600388901b60f8161c191681555b5050505050600190811b01905550565b60805160a05160c05160e051610100516117a2620005e06000396000818161030801528181610351015281816106b2015281816106e401528181610a8c01528181610ab801528181610aec01528181610b2001528181610be401528181610d0c0152818161103d015281816110a5015281816110d80152818161110601526111380152600081816101680152818161041a015281816104af015281816105880152610ceb0152600081816102ba015281816104d7015281816105d30152818161091f01528181610a3d01528181610cca01528181610eec0152610fa30152600081816102e10152818161087001528181610ca901526112bc0152600081816101d7015281816104fd015281816109450152610f1201526117a26000f3fe608060405234801561001057600080fd5b50600436106101375760003560e01c8063590e1ae3116100b8578063a98426101161007c578063a9842610146102ad578063aa8c217c146102b5578063d29e6803146102dc578063d33219b414610303578063f23e42911461032a578063fa2a89971461033d57600080fd5b8063590e1ae3146102695780635a9b0b891461027157806369d895751461028a578063779cd083146102925780637f83a4a6146102a557600080fd5b8063392f37e9116100ff578063392f37e9146101ca5780633e413bee146101d25780634ca372e8146101f95780634e69d5601461020c57806354214f691461024c57600080fd5b806316bfe25c1461013c57806317e931cf146101465780631e04c9cb146101635780633810f04f146101a257806338af3eed146101b7575b600080fd5b61014461034f565b005b6101506201518081565b6040519081526020015b60405180910390f35b61018a7f000000000000000000000000000000000000000000000000000000000000000081565b6040516001600160a01b03909116815260200161015a565b6101aa610615565b60405161015a9190611401565b60045461018a906001600160a01b031681565b6101aa6106a3565b61018a7f000000000000000000000000000000000000000000000000000000000000000081565b61014461020736600461141b565b6106b0565b610214610a83565b6040805195151586529315156020860152911515928401929092526001600160a01b039091166060830152608082015260a00161015a565b6002546102599060ff1681565b604051901515815260200161015a565b610144610b82565b610279610c9f565b60405161015a9594939291906114aa565b610144610dca565b6002546102599062010000900460ff1681565b610259610ffa565b610259611069565b6101507f000000000000000000000000000000000000000000000000000000000000000081565b6101507f000000000000000000000000000000000000000000000000000000000000000081565b6101507f000000000000000000000000000000000000000000000000000000000000000081565b61014461033836600461141b565b611104565b60025461025990610100900460ff1681565b7f000000000000000000000000000000000000000000000000000000000000000042106103b65760405162461bcd60e51b815260206004820152601060248201526f151a5b595b1bd8dac8195e1c1a5c995960821b60448201526064015b60405180910390fd5b6103be611391565b600254610100900460ff16156103e65760405162461bcd60e51b81526004016103ad906114e8565b60025462010000900460ff161561040f5760405162461bcd60e51b81526004016103ad90611512565b336001600160a01b037f000000000000000000000000000000000000000000000000000000000000000016146104875760405162461bcd60e51b815260206004820152601f60248201527f4f6e6c79206d616b65722063616e20656d657267656e637920726566756e640060448201526064016103ad565b6002805462ff000019166201000017905560405163a9059cbb60e01b81526001600160a01b037f0000000000000000000000000000000000000000000000000000000000000000811660048301527f000000000000000000000000000000000000000000000000000000000000000060248301527f0000000000000000000000000000000000000000000000000000000000000000169063a9059cbb906044016020604051808303816000875af1158015610546573d6000803e3d6000fd5b505050506040513d601f19601f8201168201806040525081019061056a919061153c565b6105865760405162461bcd60e51b81526004016103ad9061155e565b7f00000000000000000000000000000000000000000000000000000000000000006001600160a01b03167f894ce7cc354d2a39de53f8dab6b0ad8c5ac65641e68aa2154fdb88bcc387e3dd7f000000000000000000000000000000000000000000000000000000000000000060405161060191815260200190565b60405180910390a26106136001600055565b565b600380546106229061158c565b80601f016020809104026020016040519081016040528092919081815260200182805461064e9061158c565b801561069b5780601f106106705761010080835404028352916020019161069b565b820191906000526020600020905b81548152906001019060200180831161067e57829003601f168201915b505050505081565b600180546106229061158c565b7f0000000000000000000000000000000000000000000000000000000000000000421015801561070c5750610708620151807f00000000000000000000000000000000000000000000000000000000000000006115dc565b4211155b61074f5760405162461bcd60e51b81526020600482015260146024820152734e6f7420696e2072657665616c2077696e646f7760601b60448201526064016103ad565b610757611391565b600254610100900460ff161561077f5760405162461bcd60e51b81526004016103ad906114e8565b60025462010000900460ff16156107a85760405162461bcd60e51b81526004016103ad90611512565b60025460ff16156107f55760405162461bcd60e51b815260206004820152601760248201527614d958dc995d08185b1c9958591e481c995d99585b1959604a1b60448201526064016103ad565b6001600160a01b0381166108415760405162461bcd60e51b8152602060048201526013602482015272496e76616c69642062656e656669636961727960681b60448201526064016103ad565b600083836040516020016108569291906115f5565b6040516020818303038152906040528051906020012090507f000000000000000000000000000000000000000000000000000000000000000081146108ce5760405162461bcd60e51b815260206004820152600e60248201526d125b9d985b1a59081cd958dc995d60921b60448201526064016103ad565b6002805461ffff191661010117905560036108ea848683611669565b50600480546001600160a01b0319166001600160a01b03848116918217835560405163a9059cbb60e01b8152928301919091527f000000000000000000000000000000000000000000000000000000000000000060248301527f0000000000000000000000000000000000000000000000000000000000000000169063a9059cbb906044016020604051808303816000875af115801561098e573d6000803e3d6000fd5b505050506040513d601f19601f820116820180604052508101906109b2919061153c565b6109ce5760405162461bcd60e51b81526004016103ad9061155e565b336001600160a01b03167eeb786744a9f65011038c21efff745d1e8909171bd3f11d61dce3e65037d0028585604051610a0892919061172a565b60405180910390a2816001600160a01b03167fe327b247066bdf32cf2493778e3fce4339b69c1e379a3b0dc780779bf67fe1557f0000000000000000000000000000000000000000000000000000000000000000604051610a6b91815260200190565b60405180910390a250610a7e6001600055565b505050565b600080808080807f0000000000000000000000000000000000000000000000000000000000000000421015610ae357610adc427f0000000000000000000000000000000000000000000000000000000000000000611759565b9050610b51565b610b10620151807f00000000000000000000000000000000000000000000000000000000000000006115dc565b4211610b515742610b44620151807f00000000000000000000000000000000000000000000000000000000000000006115dc565b610b4e9190611759565b90505b60025460045460ff80831699610100840482169950620100009093041696506001600160a01b031694509092509050565b610b8a611391565b600254610100900460ff1615610bb25760405162461bcd60e51b81526004016103ad906114e8565b60025462010000900460ff1615610bdb5760405162461bcd60e51b81526004016103ad90611512565b610c08620151807f00000000000000000000000000000000000000000000000000000000000000006115dc565b4211610c565760405162461bcd60e51b815260206004820152601960248201527f52657665616c2077696e646f77206e6f7420657870697265640000000000000060448201526064016103ad565b60025460ff16156104875760405162461bcd60e51b815260206004820152601360248201527214d958dc995d081dd85cc81c995d99585b1959606a1b60448201526064016103ad565b60008060008060607f00000000000000000000000000000000000000000000000000000000000000007f00000000000000000000000000000000000000000000000000000000000000007f00000000000000000000000000000000000000000000000000000000000000007f00000000000000000000000000000000000000000000000000000000000000006001808054610d399061158c565b80601f0160208091040260200160405190810160405280929190818152602001828054610d659061158c565b8015610db25780601f10610d8757610100808354040283529160200191610db2565b820191906000526020600020905b815481529060010190602001808311610d9557829003601f168201915b50505050509050945094509450945094509091929394565b610dd2611391565b600254610100900460ff1615610dfa5760405162461bcd60e51b81526004016103ad906114e8565b60025462010000900460ff1615610e235760405162461bcd60e51b81526004016103ad90611512565b60025460ff16610e6b5760405162461bcd60e51b815260206004820152601360248201527214d958dc995d081b9bdd081c995d99585b1959606a1b60448201526064016103ad565b6004546001600160a01b0316610eb85760405162461bcd60e51b8152602060048201526012602482015271139bc818995b99599a58da585c9e481cd95d60721b60448201526064016103ad565b6002805461ff0019166101001790556004805460405163a9059cbb60e01b81526001600160a01b03918216928101929092527f000000000000000000000000000000000000000000000000000000000000000060248301527f0000000000000000000000000000000000000000000000000000000000000000169063a9059cbb906044016020604051808303816000875af1158015610f5b573d6000803e3d6000fd5b505050506040513d601f19601f82011682018060405250810190610f7f919061153c565b610f9b5760405162461bcd60e51b81526004016103ad9061155e565b6004546040517f000000000000000000000000000000000000000000000000000000000000000081526001600160a01b03909116907fe327b247066bdf32cf2493778e3fce4339b69c1e379a3b0dc780779bf67fe15590602001610601565b60025460009060ff161580156110185750600254610100900460ff16155b801561102d575060025462010000900460ff16155b80156110645750611061620151807f00000000000000000000000000000000000000000000000000000000000000006115dc565b42115b905090565b60025460009060ff161580156110875750600254610100900460ff16155b801561109c575060025462010000900460ff16155b80156110c857507f00000000000000000000000000000000000000000000000000000000000000004210155b801561106457506110fc620151807f00000000000000000000000000000000000000000000000000000000000000006115dc565b421115905090565b7f00000000000000000000000000000000000000000000000000000000000000004210158015611160575061115c620151807f00000000000000000000000000000000000000000000000000000000000000006115dc565b4211155b6111a35760405162461bcd60e51b81526020600482015260146024820152734e6f7420696e2072657665616c2077696e646f7760601b60448201526064016103ad565b600254610100900460ff16156111cb5760405162461bcd60e51b81526004016103ad906114e8565b60025462010000900460ff16156111f45760405162461bcd60e51b81526004016103ad90611512565b60025460ff16156112415760405162461bcd60e51b815260206004820152601760248201527614d958dc995d08185b1c9958591e481c995d99585b1959604a1b60448201526064016103ad565b6001600160a01b03811661128d5760405162461bcd60e51b8152602060048201526013602482015272496e76616c69642062656e656669636961727960681b60448201526064016103ad565b600083836040516020016112a29291906115f5565b6040516020818303038152906040528051906020012090507f0000000000000000000000000000000000000000000000000000000000000000811461131a5760405162461bcd60e51b815260206004820152600e60248201526d125b9d985b1a59081cd958dc995d60921b60448201526064016103ad565b6002805460ff191660011790556003611334848683611669565b50600480546001600160a01b0319166001600160a01b03841617905560405133907eeb786744a9f65011038c21efff745d1e8909171bd3f11d61dce3e65037d00290611383908790879061172a565b60405180910390a250505050565b6002600054036113b457604051633ee5aeb560e01b815260040160405180910390fd5b6002600055565b6000815180845260005b818110156113e1576020818501810151868301820152016113c5565b506000602082860101526020601f19601f83011685010191505092915050565b60208152600061141460208301846113bb565b9392505050565b60008060006040848603121561143057600080fd5b833567ffffffffffffffff8082111561144857600080fd5b818601915086601f83011261145c57600080fd5b81358181111561146b57600080fd5b87602082850101111561147d57600080fd5b602092830195509350508401356001600160a01b038116811461149f57600080fd5b809150509250925092565b85815284602082015260018060a01b038416604082015282606082015260a0608082015260006114dd60a08301846113bb565b979650505050505050565b60208082526010908201526f105b1c9958591e481c995b19585cd95960821b604082015260600190565b60208082526010908201526f105b1c9958591e481c99599d5b99195960821b604082015260600190565b60006020828403121561154e57600080fd5b8151801515811461141457600080fd5b6020808252601490820152731554d110c81d1c985b9cd9995c8819985a5b195960621b604082015260600190565b600181811c908216806115a057607f821691505b6020821081036115c057634e487b7160e01b600052602260045260246000fd5b50919050565b634e487b7160e01b600052601160045260246000fd5b808201808211156115ef576115ef6115c6565b92915050565b8183823760009101908152919050565b634e487b7160e01b600052604160045260246000fd5b601f821115610a7e57600081815260208120601f850160051c810160208610156116425750805b601f850160051c820191505b818110156116615782815560010161164e565b505050505050565b67ffffffffffffffff83111561168157611681611605565b6116958361168f835461158c565b8361161b565b6000601f8411600181146116c957600085156116b15750838201355b600019600387901b1c1916600186901b178355611723565b600083815260209020601f19861690835b828110156116fa57868501358255602094850194600190920191016116da565b50868210156117175760001960f88860031b161c19848701351681555b505060018560011b0183555b5050505050565b60208152816020820152818360408301376000818301604090810191909152601f909201601f19160101919050565b818103818111156115ef576115ef6115c656fea26469706673582212207fb61d9d7dada002692676709d7e8b0bc1bcc68adc7eeca367c9023b043819b964736f6c63430008140033",
  "linkReferences": {},
  "deployedLinkReferences": {}
}