{"contracts/SUIEscrow.sol":{"SUIEscrow":{"abi":[{"inputs":[{"internalType":"address","name":"_usdc","type":"address"},{"internalType":"bytes32","name":"_secretHash","type":"bytes32"},{"internalType":"uint256","name":"_amount","type":"uint256"},{"internalType":"address","name":"_makerAddress","type":"address"},{"internalType":"uint256","name":"_timelock","type":"uint256"},{"internalType":"string","name":"_metadata","type":"string"}],"stateMutability":"nonpayable","type":"constructor"},{"inputs":[],"name":"ReentrancyGuardReentrantCall","type":"error"},{"anonymous":false,"inputs":[{"indexed":true,"internalType":"address","name":"maker","type":"address"},{"indexed":false,"internalType":"uint256","name":"amount","type":"uint256"}],"name":"EscrowRefunded","type":"event"},{"anonymous":false,"inputs":[{"indexed":true,"internalType":"address","name":"beneficiary","type":"address"},{"indexed":false,"internalType":"uint256","name":"amount","type":"uint256"}],"name":"EscrowReleased","type":"event"},{"anonymous":false,"inputs":[{"indexed":true,"internalType":"address","name":"revealer","type":"address"},{"indexed":false,"internalType":"string","name":"secret","type":"string"}],"name":"SecretRevealed","type":"event"},{"inputs":[],"name":"REVEAL_WINDOW","outputs":[{"internalType":"uint256","name":"","type":"uint256"}],"stateMutability":"view","type":"function"},{"inputs":[],"name":"amount","outputs":[{"internalType":"uint256","name":"","type":"uint256"}],"stateMutability":"view","type":"function"},{"inputs":[],"name":"beneficiary","outputs":[{"internalType":"address","name":"","type":"address"}],"stateMutability":"view","type":"function"},{"inputs":[],"name":"canRefund","outputs":[{"internalType":"bool","name":"","type":"bool"}],"stateMutability":"view","type":"function"},{"inputs":[],"name":"canReveal","outputs":[{"internalType":"bool","name":"","type":"bool"}],"stateMutability":"view","type":"function"},{"inputs":[],"name":"emergencyRefund","outputs":[],"stateMutability":"nonpayable","type":"function"},{"inputs":[],"name":"getInfo","outputs":[{"internalType":"bytes32","name":"_secretHash","type":"bytes32"},{"internalType":"uint256","name":"_amount","type":"uint256"},{"internalType":"address","name":"_makerAddress","type":"address"},{"internalType":"uint256","name":"_timelock","type":"uint256"},{"internalType":"string","name":"_metadata","type":"string"}],"stateMutability":"view","type":"function"},{"inputs":[],"name":"getStatus","outputs":[{"internalType":"bool","name":"_isRevealed","type":"bool"},{"internalType":"bool","name":"_isReleased","type":"bool"},{"internalType":"bool","name":"_isRefunded","type":"bool"},{"internalType":"address","name":"_beneficiary","type":"address"},{"internalType":"uint256","name":"_timeRemaining","type":"uint256"}],"stateMutability":"view","type":"function"},{"inputs":[],"name":"isRefunded","outputs":[{"internalType":"bool","name":"","type":"bool"}],"stateMutability":"view","type":"function"},{"inputs":[],"name":"isReleased","outputs":[{"internalType":"bool","name":"","type":"bool"}],"stateMutability":"view","type":"function"},{"inputs":[],"name":"isRevealed","outputs":[{"internalType":"bool","name":"","type":"bool"}],"stateMutability":"view","type":"function"},{"inputs":[],"name":"makerAddress","outputs":[{"internalType":"address","name":"","type":"address"}],"stateMutability":"view","type":"function"},{"inputs":[],"name":"metadata","outputs":[{"internalType":"string","name":"","type":"string"}],"stateMutability":"view","type":"function"},{"inputs":[],"name":"refund","outputs":[],"stateMutability":"nonpayable","type":"function"},{"inputs":[],"name":"releaseFunds","outputs":[],"stateMutability":"nonpayable","type":"function"},{"inputs":[{"internalType":"string","name":"secret","type":"string"},{"internalType":"address","name":"_beneficiary","type":"address"}],"name":"revealAndRelease","outputs":[],"stateMutability":"nonpayable","type":"function"},{"inputs":[{"internalType":"string","name":"secret","type":"string"},{"internalType":"address","name":"_beneficiary","type":"address"}],"name":"revealSecret","outputs":[],"stateMutability":"nonpayable","type":"function"},{"inputs":[],"name":"revealedSecret","outputs":[{"internalType":"string","name":"","type":"string"}],"stateMutability":"view","type":"function"},{"inputs":[],"name":"secretHash","outputs":[{"internalType":"bytes32","name":"","type":"bytes32"}],"stateMutability":"view","type":"function"},{"inputs":[],"name":"timelock","outputs":[{"internalType":"uint256","name":"","type":"uint256"}],"stateMutability":"view","type":"function"},{"inputs":[],"name":"usdc","outputs":[{"internalType":"contract IERC20","name":"","type":"address"}],"stateMutability":"view","type":"function"}],"evm":{"bytecode":{"linkReferences":{},"object":"6101206040523480156200001257600080fd5b5060405162001d8238038062001d82833981016040819052620000359162000251565b60016000556001600160a01b038616620000965760405162461bcd60e51b815260206004820152601460248201527f496e76616c69642055534443206164647265737300000000000000000000000060448201526064015b60405180910390fd5b84620000e55760405162461bcd60e51b815260206004820152601360248201527f496e76616c69642073656372657420686173680000000000000000000000000060448201526064016200008d565b60008411620001375760405162461bcd60e51b815260206004820152601d60248201527f416d6f756e74206d7573742062652067726561746572207468616e203000000060448201526064016200008d565b6001600160a01b0383166200018f5760405162461bcd60e51b815260206004820152601560248201527f496e76616c6964206d616b65722061646472657373000000000000000000000060448201526064016200008d565b428211620001e05760405162461bcd60e51b815260206004820152601a60248201527f54696d656c6f636b206d75737420626520696e2066757475726500000000000060448201526064016200008d565b6001600160a01b0380871660805260a086905260c0859052831660e0526101008290526001620002118282620003f6565b50505050505050620004c2565b80516001600160a01b03811681146200023657600080fd5b919050565b634e487b7160e01b600052604160045260246000fd5b60008060008060008060c087890312156200026b57600080fd5b62000276876200021e565b955060208088015195506040880151945062000295606089016200021e565b608089015160a08a015191955093506001600160401b0380821115620002ba57600080fd5b818a0191508a601f830112620002cf57600080fd5b815181811115620002e457620002e46200023b565b604051601f8201601f19908116603f011681019083821181831017156200030f576200030f6200023b565b816040528281528d868487010111156200032857600080fd5b600093505b828410156200034c57848401860151818501870152928501926200032d565b60008684830101528096505050505050509295509295509295565b600181811c908216806200037c57607f821691505b6020821081036200039d57634e487b7160e01b600052602260045260246000fd5b50919050565b601f821115620003f157600081815260208120601f850160051c81016020861015620003cc5750805b601f850160051c820191505b81811015620003ed57828155600101620003d8565b5050505b505050565b81516001600160401b038111156200041257620004126200023b565b6200042a8162000423845462000367565b84620003a3565b602080601f831160018114620004625760008415620004495750858301515b600019600386901b1c1916600185901b178555620003ed565b600085815260208120601f198616915b82811015620004935788860151825594840194600190910190840162000472565b5085821015620004b25787850151600019600388901b60f8161c191681555b5050505050600190811b01905550565b60805160a05160c05160e051610100516117a2620005e06000396000818161030801528181610351015281816106b2015281816106e401528181610a8c01528181610ab801528181610aec01528181610b2001528181610be401528181610d0c0152818161103d015281816110a5015281816110d80152818161110601526111380152600081816101680152818161041a015281816104af015281816105880152610ceb0152600081816102ba015281816104d7015281816105d30152818161091f01528181610a3d01528181610cca01528181610eec0152610fa30152600081816102e10152818161087001528181610ca901526112bc0152600081816101d7015281816104fd015281816109450152610f1201526117a26000f3fe608060405234801561001057600080fd5b50600436106101375760003560e01c8063590e1ae3116100b8578063a98426101161007c578063a9842610146102ad578063aa8c217c146102b5578063d29e6803146102dc578063d33219b414610303578063f23e42911461032a578063fa2a89971461033d57600080fd5b8063590e1ae3146102695780635a9b0b891461027157806369d895751461028a578063779cd083146102925780637f83a4a6146102a557600080fd5b8063392f37e9116100ff578063392f37e9146101ca5780633e413bee146101d25780634ca372e8146101f95780634e69d5601461020c57806354214f691461024c57600080fd5b806316bfe25c1461013c57806317e931cf146101465780631e04c9cb146101635780633810f04f146101a257806338af3eed146101b7575b600080fd5b61014461034f565b005b6101506201518081565b6040519081526020015b60405180910390f35b61018a7f000000000000000000000000000000000000000000000000000000000000000081565b6040516001600160a01b03909116815260200161015a565b6101aa610615565b60405161015a9190611401565b60045461018a906001600160a01b031681565b6101aa6106a3565b61018a7f000000000000000000000000000000000000000000000000000000000000000081565b61014461020736600461141b565b6106b0565b610214610a83565b6040805195151586529315156020860152911515928401929092526001600160a01b039091166060830152608082015260a00161015a565b6002546102599060ff1681565b604051901515815260200161015a565b610144610b82565b610279610c9f565b60405161015a9594939291906114aa565b610144610dca565b6002546102599062010000900460ff1681565b610259610ffa565b610259611069565b6101507f000000000000000000000000000000000000000000000000000000000000000081565b6101507f000000000000000000000000000000000000000000000000000000000000000081565b6101507f000000000000000000000000000000000000000000000000000000000000000081565b61014461033836600461141b565b611104565b60025461025990610100900460ff1681565b7f000000000000000000000000000000000000000000000000000000000000000042106103b65760405162461bcd60e51b815260206004820152601060248201526f151a5b595b1bd8dac8195e1c1a5c995960821b60448201526064015b60405180910390fd5b6103be611391565b600254610100900460ff16156103e65760405162461bcd60e51b81526004016103ad906114e8565b60025462010000900460ff161561040f5760405162461bcd60e51b81526004016103ad90611512565b336001600160a01b037f000000000000000000000000000000000000000000000000000000000000000016146104875760405162461bcd60e51b815260206004820152601f60248201527f4f6e6c79206d616b65722063616e20656d657267656e637920726566756e640060448201526064016103ad565b6002805462ff000019166201000017905560405163a9059cbb60e01b81526001600160a01b037f0000000000000000000000000000000000000000000000000000000000000000811660048301527f000000000000000000000000000000000000000000000000000000000000000060248301527f0000000000000000000000000000000000000000000000000000000000000000169063a9059cbb906044016020604051808303816000875af1158015610546573d6000803e3d6000fd5b505050506040513d601f19601f8201168201806040525081019061056a919061153c565b6105865760405162461bcd60e51b81526004016103ad9061155e565b7f00000000000000000000000000000000000000000000000000000000000000006001600160a01b03167f894ce7cc354d2a39de53f8dab6b0ad8c5ac65641e68aa2154fdb88bcc387e3dd7f000000000000000000000000000000000000000000000000000000000000000060405161060191815260200190565b60405180910390a26106136001600055565b565b600380546106229061158c565b80601f016020809104026020016040519081016040528092919081815260200182805461064e9061158c565b801561069b5780601f106106705761010080835404028352916020019161069b565b820191906000526020600020905b81548152906001019060200180831161067e57829003601f168201915b505050505081565b600180546106229061158c565b7f0000000000000000000000000000000000000000000000000000000000000000421015801561070c5750610708620151807f00000000000000000000000000000000000000000000000000000000000000006115dc565b4211155b61074f5760405162461bcd60e51b81526020600482015260146024820152734e6f7420696e2072657665616c2077696e646f7760601b60448201526064016103ad565b610757611391565b600254610100900460ff161561077f5760405162461bcd60e51b81526004016103ad906114e8565b60025462010000900460ff16156107a85760405162461bcd60e51b81526004016103ad90611512565b60025460ff16156107f55760405162461bcd60e51b815260206004820152601760248201527614d958dc995d08185b1c9958591e481c995d99585b1959604a1b60448201526064016103ad565b6001600160a01b0381166108415760405162461bcd60e51b8152602060048201526013602482015272496e76616c69642062656e656669636961727960681b60448201526064016103ad565b600083836040516020016108569291906115f5565b6040516020818303038152906040528051906020012090507f000000000000000000000000000000000000000000000000000000000000000081146108ce5760405162461bcd60e51b815260206004820152600e60248201526d125b9d985b1a59081cd958dc995d60921b60448201526064016103ad565b6002805461ffff191661010117905560036108ea848683611669565b50600480546001600160a01b0319166001600160a01b03848116918217835560405163a9059cbb60e01b8152928301919091527f000000000000000000000000000000000000000000000000000000000000000060248301527f0000000000000000000000000000000000000000000000000000000000000000169063a9059cbb906044016020604051808303816000875af115801561098e573d6000803e3d6000fd5b505050506040513d601f19601f820116820180604052508101906109b2919061153c565b6109ce5760405162461bcd60e51b81526004016103ad9061155e565b336001600160a01b03167eeb786744a9f65011038c21efff745d1e8909171bd3f11d61dce3e65037d0028585604051610a0892919061172a565b60405180910390a2816001600160a01b03167fe327b247066bdf32cf2493778e3fce4339b69c1e379a3b0dc780779bf67fe1557f0000000000000000000000000000000000000000000000000000000000000000604051610a6b91815260200190565b60405180910390a250610a7e6001600055565b505050565b600080808080807f0000000000000000000000000000000000000000000000000000000000000000421015610ae357610adc427f0000000000000000000000000000000000000000000000000000000000000000611759565b9050610b51565b610b10620151807f00000000000000000000000000000000000000000000000000000000000000006115dc565b4211610b515742610b44620151807f00000000000000000000000000000000000000000000000000000000000000006115dc565b610b4e9190611759565b90505b60025460045460ff80831699610100840482169950620100009093041696506001600160a01b031694509092509050565b610b8a611391565b600254610100900460ff1615610bb25760405162461bcd60e51b81526004016103ad906114e8565b60025462010000900460ff1615610bdb5760405162461bcd60e51b81526004016103ad90611512565b610c08620151807f00000000000000000000000000000000000000000000000000000000000000006115dc565b4211610c565760405162461bcd60e51b815260206004820152601960248201527f52657665616c2077696e646f77206e6f7420657870697265640000000000000060448201526064016103ad565b60025460ff16156104875760405162461bcd60e51b815260206004820152601360248201527214d958dc995d081dd85cc81c995d99585b1959606a1b60448201526064016103ad565b60008060008060607f00000000000000000000000000000000000000000000000000000000000000007f00000000000000000000000000000000000000000000000000000000000000007f00000000000000000000000000000000000000000000000000000000000000007f00000000000000000000000000000000000000000000000000000000000000006001808054610d399061158c565b80601f0160208091040260200160405190810160405280929190818152602001828054610d659061158c565b8015610db25780601f10610d8757610100808354040283529160200191610db2565b820191906000526020600020905b815481529060010190602001808311610d9557829003601f168201915b50505050509050945094509450945094509091929394565b610dd2611391565b600254610100900460ff1615610dfa5760405162461bcd60e51b81526004016103ad906114e8565b60025462010000900460ff1615610e235760405162461bcd60e51b81526004016103ad90611512565b60025460ff16610e6b5760405162461bcd60e51b815260206004820152601360248201527214d958dc995d081b9bdd081c995d99585b1959606a1b60448201526064016103ad565b6004546001600160a01b0316610eb85760405162461bcd60e51b8152602060048201526012602482015271139bc818995b99599a58da585c9e481cd95d60721b60448201526064016103ad565b6002805461ff0019166101001790556004805460405163a9059cbb60e01b81526001600160a01b03918216928101929092527f000000000000000000000000000000000000000000000000000000000000000060248301527f0000000000000000000000000000000000000000000000000000000000000000169063a9059cbb906044016020604051808303816000875af1158015610f5b573d6000803e3d6000fd5b505050506040513d601f19601f82011682018060405250810190610f7f919061153c565b610f9b5760405162461bcd60e51b81526004016103ad9061155e565b6004546040517f000000000000000000000000000000000000000000000000000000000000000081526001600160a01b03909116907fe327b247066bdf32cf2493778e3fce4339b69c1e379a3b0dc780779bf67fe15590602001610601565b60025460009060ff161580156110185750600254610100900460ff16155b801561102d575060025462010000900460ff16155b80156110645750611061620151807f00000000000000000000000000000000000000000000000000000000000000006115dc565b42115b905090565b60025460009060ff161580156110875750600254610100900460ff16155b801561109c575060025462010000900460ff16155b80156110c857507f00000000000000000000000000000000000000000000000000000000000000004210155b801561106457506110fc620151807f00000000000000000000000000000000000000000000000000000000000000006115dc565b421115905090565b7f00000000000000000000000000000000000000000000000000000000000000004210158015611160575061115c620151807f00000000000000000000000000000000000000000000000000000000000000006115dc565b4211155b6111a35760405162461bcd60e51b81526020600482015260146024820152734e6f7420696e2072657665616c2077696e646f7760601b60448201526064016103ad565b600254610100900460ff16156111cb5760405162461bcd60e51b81526004016103ad906114e8565b60025462010000900460ff16156111f45760405162461bcd60e51b81526004016103ad90611512565b60025460ff16156112415760405162461bcd60e51b815260206004820152601760248201527614d958dc995d08185b1c9958591e481c995d99585b1959604a1b60448201526064016103ad565b6001600160a01b03811661128d5760405162461bcd60e51b8152602060048201526013602482015272496e76616c69642062656e656669636961727960681b60448201526064016103ad565b600083836040516020016112a29291906115f5565b6040516020818303038152906040528051906020012090507f0000000000000000000000000000000000000000000000000000000000000000811461131a5760405162461bcd60e51b815260206004820152600e60248201526d125b9d985b1a59081cd958dc995d60921b60448201526064016103ad565b6002805460ff191660011790556003611334848683611669565b50600480546001600160a01b0319166001600160a01b03841617905560405133907eeb786744a9f65011038c21efff745d1e8909171bd3f11d61dce3e65037d00290611383908790879061172a565b60405180910390a250505050565b6002600054036113b457604051633ee5aeb560e01b815260040160405180910390fd5b6002600055565b6000815180845260005b818110156113e1576020818501810151868301820152016113c5565b506000602082860101526020601f19601f83011685010191505092915050565b60208152600061141460208301846113bb565b9392505050565b60008060006040848603121561143057600080fd5b833567ffffffffffffffff8082111561144857600080fd5b818601915086601f83011261145c57600080fd5b81358181111561146b57600080fd5b87602082850101111561147d57600080fd5b602092830195509350508401356001600160a01b038116811461149f57600080fd5b809150509250925092565b85815284602082015260018060a01b038416604082015282606082015260a0608082015260006114dd60a08301846113bb565b979650505050505050565b60208082526010908201526f105b1c9958591e481c995b19585cd95960821b604082015260600190565b60208082526010908201526f105b1c9958591e481c99599d5b99195960821b604082015260600190565b60006020828403121561154e57600080fd5b8151801515811461141457600080fd5b6020808252601490820152731554d110c81d1c985b9cd9995c8819985a5b195960621b604082015260600190565b600181811c908216806115a057607f821691505b6020821081036115c057634e487b7160e01b600052602260045260246000fd5b50919050565b634e487b7160e01b600052601160045260246000fd5b808201808211156115ef576115ef6115c6565b92915050565b8183823760009101908152919050565b634e487b7160e01b600052604160045260246000fd5b601f821115610a7e57600081815260208120601f850160051c810160208610156116425750805b601f850160051c820191505b818110156116615782815560010161164e565b505050505050565b67ffffffffffffffff83111561168157611681611605565b6116958361168f835461158c565b8361161b565b6000601f8411600181146116c957600085156116b15750838201355b600019600387901b1c1916600186901b178355611723565b600083815260209020601f19861690835b828110156116fa57868501358255602094850194600190920191016116da565b50868210156117175760001960f88860031b161c19848701351681555b505060018560011b0183555b5050505050565b60208152816020820152818360408301376000818301604090810191909152601f909201601f19160101919050565b818103818111156115ef576115ef6115c656fea26469706673582212207fb61d9d7dada002692676709d7e8b0bc1bcc68adc7eeca367c9023b043819b964736f6c63430008140033","opcodes":"PUSH2 0x120 PUSH1 0x40 MSTORE CALLVALUE DUP1 ISZERO PUSH3 0x12 JUMPI PUSH1 0x0 DUP1 REVERT JUMPDEST POP PUSH1 0x40 MLOAD PUSH3 0x1D82 CODESIZE SUB DUP1 PUSH3 0x1D82 DUP4 CODECOPY DUP2 ADD PUSH1 0x40 DUP2 SWAP1 MSTORE PUSH3 0x35 SWAP2 PUSH3 0x251 JUMP JUMPDEST PUSH1 0x1 PUSH1 0x0 SSTORE PUSH1 0x1 PUSH1 0x1 PUSH1 0xA0 SHL SUB DUP7 AND PUSH3 0x96 JUMPI PUSH1 0x40 MLOAD PUSH3 0x461BCD PUSH1 0xE5 SHL DUP2 MSTORE PUSH1 0x20 PUSH1 0x4 DUP3 ADD MSTORE PUSH1 0x14 PUSH1 0x24 DUP3 ADD MSTORE PUSH32 0x496E76616C696420555344432061646472657373000000000000000000000000 PUSH1 0x44 DUP3 ADD MSTORE PUSH1 0x64 ADD JUMPDEST PUSH1 0x40 MLOAD DUP1 SWAP2 SUB SWAP1 REVERT JUMPDEST DUP5 PUSH3 0xE5 JUMPI PUSH1 0x40 MLOAD PUSH3 0x461BCD PUSH1 0xE5 SHL DUP2 MSTORE PUSH1 0x20 PUSH1 0x4 DUP3 ADD MSTORE PUSH1 0x13 PUSH1 0x24 DUP3 ADD MSTORE PUSH32 0x496E76616C696420736563726574206861736800000000000000000000000000 PUSH1 0x44 DUP3 ADD MSTORE PUSH1 0x64 ADD PUSH3 0x8D JUMP JUMPDEST PUSH1 0x0 DUP5 GT PUSH3 0x137 JUMPI PUSH1 0x40 MLOAD PUSH3 0x461BCD PUSH1 0xE5 SHL DUP2 MSTORE PUSH1 0x20 PUSH1 0x4 DUP3 ADD MSTORE PUSH1 0x1D PUSH1 0x24 DUP3 ADD MSTORE PUSH32 0x416D6F756E74206D7573742062652067726561746572207468616E2030000000 PUSH1 0x44 DUP3 ADD MSTORE PUSH1 0x64 ADD PUSH3 0x8D JUMP JUMPDEST PUSH1 0x1 PUSH1 0x1 PUSH1 0xA0 SHL SUB DUP4 AND PUSH3 0x18F JUMPI PUSH1 0x40 MLOAD PUSH3 0x461BCD PUSH1 0xE5 SHL DUP2 MSTORE PUSH1 0x20 PUSH1 0x4 DUP3 ADD MSTORE PUSH1 0x15 PUSH1 0x24 DUP3 ADD MSTORE PUSH32 0x496E76616C6964206D616B657220616464726573730000000000000000000000 PUSH1 0x44 DUP3 ADD MSTORE PUSH1 0x64 ADD PUSH3 0x8D JUMP JUMPDEST TIMESTAMP DUP3 GT PUSH3 0x1E0 JUMPI PUSH1 0x40 MLOAD PUSH3 0x461BCD PUSH1 0xE5 SHL DUP2 MSTORE PUSH1 0x20 PUSH1 0x4 DUP3 ADD MSTORE PUSH1 0x1A PUSH1 0x24 DUP3 ADD MSTORE PUSH32 0x54696D656C6F636B206D75737420626520696E20667574757265000000000000 PUSH1 0x44 DUP3 ADD MSTORE PUSH1 0x64 ADD PUSH3 0x8D JUMP JUMPDEST PUSH1 0x1 PUSH1 0x1 PUSH1 0xA0 SHL SUB DUP1 DUP8 AND PUSH1 0x80 MSTORE PUSH1 0xA0 DUP7 SWAP1 MSTORE PUSH1 0xC0 DUP6 SWAP1 MSTORE DUP4 AND PUSH1 0xE0 MSTORE PUSH2 0x100 DUP3 SWAP1 MSTORE PUSH1 0x1 PUSH3 0x211 DUP3 DUP3 PUSH3 0x3F6 JUMP JUMPDEST POP POP POP POP POP POP POP PUSH3 0x4C2 JUMP JUMPDEST DUP1 MLOAD PUSH1 0x1 PUSH1 0x1 PUSH1 0xA0 SHL SUB DUP2 AND DUP2 EQ PUSH3 0x236 JUMPI PUSH1 0x0 DUP1 REVERT JUMPDEST SWAP2 SWAP1 POP JUMP JUMPDEST PUSH4 0x4E487B71 PUSH1 0xE0 SHL PUSH1 0x0 MSTORE PUSH1 0x41 PUSH1 0x4 MSTORE PUSH1 0x24 PUSH1 0x0 REVERT JUMPDEST PUSH1 0x0 DUP1 PUSH1 0x0 DUP1 PUSH1 0x0 DUP1 PUSH1 0xC0 DUP8 DUP10 SUB SLT ISZERO PUSH3 0x26B JUMPI PUSH1 0x0 DUP1 REVERT JUMPDEST PUSH3 0x276 DUP8 PUSH3 0x21E JUMP JUMPDEST SWAP6 POP PUSH1 0x20 DUP1 DUP9 ADD MLOAD SWAP6 POP PUSH1 0x40 DUP9 ADD MLOAD SWAP5 POP PUSH3 0x295 PUSH1 0x60 DUP10 ADD PUSH3 0x21E JUMP JUMPDEST PUSH1 0x80 DUP10 ADD MLOAD PUSH1 0xA0 DUP11 ADD MLOAD SWAP2 SWAP6 POP SWAP4 POP PUSH1 0x1 PUSH1 0x1 PUSH1 0x40 SHL SUB DUP1 DUP3 GT ISZERO PUSH3 0x2BA JUMPI PUSH1 0x0 DUP1 REVERT JUMPDEST DUP2 DUP11 ADD SWAP2 POP DUP11 PUSH1 0x1F DUP4 ADD SLT PUSH3 0x2CF JUMPI PUSH1 0x0 DUP1 REVERT JUMPDEST DUP2 MLOAD DUP2 DUP2 GT ISZERO PUSH3 0x2E4 JUMPI PUSH3 0x2E4 PUSH3 0x23B JUMP JUMPDEST PUSH1 0x40 MLOAD PUSH1 0x1F DUP3 ADD PUSH1 0x1F NOT SWAP1 DUP2 AND PUSH1 0x3F ADD AND DUP2 ADD SWAP1 DUP4 DUP3 GT DUP2 DUP4 LT OR ISZERO PUSH3 0x30F JUMPI PUSH3 0x30F PUSH3 0x23B JUMP JUMPDEST DUP2 PUSH1 0x40 MSTORE DUP3 DUP2 MSTORE DUP14 DUP7 DUP5 DUP8 ADD ADD GT ISZERO PUSH3 0x328 JUMPI PUSH1 0x0 DUP1 REVERT JUMPDEST PUSH1 0x0 SWAP4 POP JUMPDEST DUP3 DUP5 LT ISZERO PUSH3 0x34C JUMPI DUP5 DUP5 ADD DUP7 ADD MLOAD DUP2 DUP6 ADD DUP8 ADD MSTORE SWAP3 DUP6 ADD SWAP3 PUSH3 0x32D JUMP JUMPDEST PUSH1 0x0 DUP7 DUP5 DUP4 ADD ADD MSTORE DUP1 SWAP7 POP POP POP POP POP POP POP SWAP3 SWAP6 POP SWAP3 SWAP6 POP SWAP3 SWAP6 JUMP JUMPDEST PUSH1 0x1 DUP2 DUP2 SHR SWAP1 DUP3 AND DUP1 PUSH3 0x37C JUMPI PUSH1 0x7F DUP3 AND SWAP2 POP JUMPDEST PUSH1 0x20 DUP3 LT DUP2 SUB PUSH3 0x39D JUMPI PUSH4 0x4E487B71 PUSH1 0xE0 SHL PUSH1 0x0 MSTORE PUSH1 0x22 PUSH1 0x4 MSTORE PUSH1 0x24 PUSH1 0x0 REVERT JUMPDEST POP SWAP2 SWAP1 POP JUMP JUMPDEST PUSH1 0x1F DUP3 GT ISZERO PUSH3 0x3F1 JUMPI PUSH1 0x0 DUP2 DUP2 MSTORE PUSH1 0x20 DUP2 KECCAK256 PUSH1 0x1F DUP6 ADD PUSH1 0x5 SHR DUP2 ADD PUSH1 0x20 DUP7 LT ISZERO PUSH3 0x3CC JUMPI POP DUP1 JUMPDEST PUSH1 0x1F DUP6 ADD PUSH1 0x5 SHR DUP3 ADD SWAP2 POP JUMPDEST DUP2 DUP2 LT ISZERO PUSH3 0x3ED JUMPI DUP3 DUP2 SSTORE PUSH1 0x1 ADD PUSH3 0x3D8 JUMP JUMPDEST POP POP POP JUMPDEST POP POP POP JUMP JUMPDEST DUP2 MLOAD PUSH1 0x1 PUSH1 0x1 PUSH1 0x40 SHL SUB DUP2 GT ISZERO PUSH3 0x412 JUMPI PUSH3 0x412 PUSH3 0x23B JUMP JUMPDEST PUSH3 0x42A DUP2 PUSH3 0x423 DUP5 SLOAD PUSH3 0x367 JUMP JUMPDEST DUP5 PUSH3 0x3A3 JUMP JUMPDEST PUSH1 0x20 DUP1 PUSH1 0x1F DUP4 GT PUSH1 0x1 DUP2 EQ PUSH3 0x462 JUMPI PUSH1 0x0 DUP5 ISZERO PUSH3 0x449 JUMPI POP DUP6 DUP4 ADD MLOAD JUMPDEST PUSH1 0x0 NOT PUSH1 0x3 DUP7 SWAP1 SHL SHR NOT AND PUSH1 0x1 DUP6 SWAP1 SHL OR DUP6 SSTORE PUSH3 0x3ED JUMP JUMPDEST PUSH1 0x0 DUP6 DUP2 MSTORE PUSH1 0x20 DUP2 KECCAK256 PUSH1 0x1F NOT DUP7 AND SWAP2 JUMPDEST DUP3 DUP2 LT ISZERO PUSH3 0x493 JUMPI DUP9 DUP7 ADD MLOAD DUP3 SSTORE SWAP5 DUP5 ADD SWAP5 PUSH1 0x1 SWAP1 SWAP2 ADD SWAP1 DUP5 ADD PUSH3 0x472 JUMP JUMPDEST POP DUP6 DUP3 LT ISZERO PUSH3 0x4B2 JUMPI DUP8 DUP6 ADD MLOAD PUSH1 0x0 NOT PUSH1 0x3 DUP9 SWAP1 SHL PUSH1 0xF8 AND SHR NOT AND DUP2 SSTORE JUMPDEST POP POP POP POP POP PUSH1 0x1 SWAP1 DUP2 SHL ADD SWAP1 SSTORE POP JUMP JUMPDEST PUSH1 0x80 MLOAD PUSH1 0xA0 MLOAD PUSH1 0xC0 MLOAD PUSH1 0xE0 MLOAD PUSH2 0x100 MLOAD PUSH2 0x17A2 PUSH3 0x5E0 PUSH1 0x0 CODECOPY PUSH1 0x0 DUP2 DUP2 PUSH2 0x308 ADD MSTORE DUP2 DUP2 PUSH2 0x351 ADD MSTORE DUP2 DUP2 PUSH2 0x6B2 ADD MSTORE DUP2 DUP2 PUSH2 0x6E4 ADD MSTORE DUP2 DUP2 PUSH2 0xA8C ADD MSTORE DUP2 DUP2 PUSH2 0xAB8 ADD MSTORE DUP2 DUP2 PUSH2 0xAEC ADD MSTORE DUP2 DUP2 PUSH2 0xB20 ADD MSTORE DUP2 DUP2 PUSH2 0xBE4 ADD MSTORE DUP2 DUP2 PUSH2 0xD0C ADD MSTORE DUP2 DUP2 PUSH2 0x103D ADD MSTORE DUP2 DUP2 PUSH2 0x10A5 ADD MSTORE DUP2 DUP2 PUSH2 0x10D8 ADD MSTORE DUP2 DUP2 PUSH2 0x1106 ADD MSTORE PUSH2 0x1138 ADD MSTORE PUSH1 0x0 DUP2 DUP2 PUSH2 0x168 ADD MSTORE DUP2 DUP2 PUSH2 0x41A ADD MSTORE DUP2 DUP2 PUSH2 0x4AF ADD MSTORE DUP2 DUP2 PUSH2 0x588 ADD MSTORE PUSH2 0xCEB ADD MSTORE PUSH1 0x0 DUP2 DUP2 PUSH2 0x2BA ADD MSTORE DUP2 DUP2 PUSH2 0x4D7 ADD MSTORE DUP2 DUP2 PUSH2 0x5D3 ADD MSTORE DUP2 DUP2 PUSH2 0x91F ADD MSTORE DUP2 DUP2 PUSH2 0xA3D ADD MSTORE DUP2 DUP2 PUSH2 0xCCA ADD MSTORE DUP2 DUP2 PUSH2 0xEEC ADD MSTORE PUSH2 0xFA3 ADD MSTORE PUSH1 0x0 DUP2 DUP2 PUSH2 0x2E1 ADD MSTORE DUP2 DUP2 PUSH2 0x870 ADD MSTORE DUP2 DUP2 PUSH2 0xCA9 ADD MSTORE PUSH2 0x12BC ADD MSTORE PUSH1 0x0 DUP2 DUP2 PUSH2 0x1D7 ADD MSTORE DUP2 DUP2 PUSH2 0x4FD ADD MSTORE DUP2 DUP2 PUSH2 0x945 ADD MSTORE PUSH2 0xF12 ADD MSTORE PUSH2 0x17A2 PUSH1 0x0 RETURN INVALID PUSH1 0x80 PUSH1 0x40 MSTORE CALLVALUE DUP1 ISZERO PUSH2 0x10 JUMPI PUSH1 0x0 DUP1 REVERT JUMPDEST POP PUSH1 0x4 CALLDATASIZE LT PUSH2 0x137 JUMPI PUSH1 0x0 CALLDATALOAD PUSH1 0xE0 SHR DUP1 PUSH4 0x590E1AE3 GT PUSH2 0xB8 JUMPI DUP1 PUSH4 0xA9842610 GT PUSH2 0x7C JUMPI DUP1 PUSH4 0xA9842610 EQ PUSH2 0x2AD JUMPI DUP1 PUSH4 0xAA8C217C EQ PUSH2 0x2B5 JUMPI DUP1 PUSH4 0xD29E6803 EQ PUSH2 0x2DC JUMPI DUP1 PUSH4 0xD33219B4 EQ PUSH2 0x303 JUMPI DUP1 PUSH4 0xF23E4291 EQ PUSH2 0x32A JUMPI DUP1 PUSH4 0xFA2A8997 EQ PUSH2 0x33D JUMPI PUSH1 0x0 DUP1 REVERT JUMPDEST DUP1 PUSH4 0x590E1AE3 EQ PUSH2 0x269 JUMPI DUP1 PUSH4 0x5A9B0B89 EQ PUSH2 0x271 JUMPI DUP1 PUSH4 0x69D89575 EQ PUSH2 0x28A JUMPI DUP1 PUSH4 0x779CD083 EQ PUSH2 0x292 JUMPI DUP1 PUSH4 0x7F83A4A6 EQ PUSH2 0x2A5 JUMPI PUSH1 0x0 DUP1 REVERT JUMPDEST DUP1 PUSH4 0x392F37E9 GT PUSH2 0xFF JUMPI DUP1 PUSH4 0x392F37E9 EQ PUSH2 0x1CA JUMPI DUP1 PUSH4 0x3E413BEE EQ PUSH2 0x1D2 JUMPI DUP1 PUSH4 0x4CA372E8 EQ PUSH2 0x1F9 JUMPI DUP1 PUSH4 0x4E69D560 EQ PUSH2 0x20C JUMPI DUP1 PUSH4 0x54214F69 EQ PUSH2 0x24C JUMPI PUSH1 0x0 DUP1 REVERT JUMPDEST DUP1 PUSH4 0x16BFE25C EQ PUSH2 0x13C JUMPI DUP1 PUSH4 0x17E931CF EQ PUSH2 0x146 JUMPI DUP1 PUSH4 0x1E04C9CB EQ PUSH2 0x163 JUMPI DUP1 PUSH4 0x3810F04F EQ PUSH2 0x1A2 JUMPI DUP1 PUSH4 0x38AF3EED EQ PUSH2 0x1B7 JUMPI JUMPDEST PUSH1 0x0 DUP1 REVERT JUMPDEST PUSH2 0x144 PUSH2 0x34F JUMP JUMPDEST STOP JUMPDEST PUSH2 0x150 PUSH3 0x15180 DUP2 JUMP JUMPDEST PUSH1 0x40 MLOAD SWAP1 DUP2 MSTORE PUSH1 0x20 ADD JUMPDEST PUSH1 0x40 MLOAD DUP1 SWAP2 SUB SWAP1 RETURN JUMPDEST PUSH2 0x18A PUSH32 0x0 DUP2 JUMP JUMPDEST PUSH1 0x40 MLOAD PUSH1 0x1 PUSH1 0x1 PUSH1 0xA0 SHL SUB SWAP1 SWAP2 AND DUP2 MSTORE PUSH1 0x20 ADD PUSH2 0x15A JUMP JUMPDEST PUSH2 0x1AA PUSH2 0x615 JUMP JUMPDEST PUSH1 0x40 MLOAD PUSH2 0x15A SWAP2 SWAP1 PUSH2 0x1401 JUMP JUMPDEST PUSH1 0x4 SLOAD PUSH2 0x18A SWAP1 PUSH1 0x1 PUSH1 0x1 PUSH1 0xA0 SHL SUB AND DUP2 JUMP JUMPDEST PUSH2 0x1AA PUSH2 0x6A3 JUMP JUMPDEST PUSH2 0x18A PUSH32 0x0 DUP2 JUMP JUMPDEST PUSH2 0x144 PUSH2 0x207 CALLDATASIZE PUSH1 0x4 PUSH2 0x141B JUMP JUMPDEST PUSH2 0x6B0 JUMP JUMPDEST PUSH2 0x214 PUSH2 0xA83 JUMP JUMPDEST PUSH1 0x40 DUP1 MLOAD SWAP6 ISZERO ISZERO DUP7 MSTORE SWAP4 ISZERO ISZERO PUSH1 0x20 DUP7 ADD MSTORE SWAP2 ISZERO ISZERO SWAP3 DUP5 ADD SWAP3 SWAP1 SWAP3 MSTORE PUSH1 0x1 PUSH1 0x1 PUSH1 0xA0 SHL SUB SWAP1 SWAP2 AND PUSH1 0x60 DUP4 ADD MSTORE PUSH1 0x80 DUP3 ADD MSTORE PUSH1 0xA0 ADD PUSH2 0x15A JUMP JUMPDEST PUSH1 0x2 SLOAD PUSH2 0x259 SWAP1 PUSH1 0xFF AND DUP2 JUMP JUMPDEST PUSH1 0x40 MLOAD SWAP1 ISZERO ISZERO DUP2 MSTORE PUSH1 0x20 ADD PUSH2 0x15A JUMP JUMPDEST PUSH2 0x144 PUSH2 0xB82 JUMP JUMPDEST PUSH2 0x279 PUSH2 0xC9F JUMP JUMPDEST PUSH1 0x40 MLOAD PUSH2 0x15A SWAP6 SWAP5 SWAP4 SWAP3 SWAP2 SWAP1 PUSH2 0x14AA JUMP JUMPDEST PUSH2 0x144 PUSH2 0xDCA JUMP JUMPDEST PUSH1 0x2 SLOAD PUSH2 0x259 SWAP1 PUSH3 0x10000 SWAP1 DIV PUSH1 0xFF AND DUP2 JUMP JUMPDEST PUSH2 0x259 PUSH2 0xFFA JUMP JUMPDEST PUSH2 0x259 PUSH2 0x1069 JUMP JUMPDEST PUSH2 0x150 PUSH32 0x0 DUP2 JUMP JUMPDEST PUSH2 0x150 PUSH32 0x0 DUP2 JUMP JUMPDEST PUSH2 0x150 PUSH32 0x0 DUP2 JUMP JUMPDEST PUSH2 0x144 PUSH2 0x338 CALLDATASIZE PUSH1 0x4 PUSH2 0x141B JUMP JUMPDEST PUSH2 0x1104 JUMP JUMPDEST PUSH1 0x2 SLOAD PUSH2 0x259 SWAP1 PUSH2 0x100 SWAP1 DIV PUSH1 0xFF AND DUP2 JUMP JUMPDEST PUSH32 0x0 TIMESTAMP LT PUSH2 0x3B6 JUMPI PUSH1 0x40 MLOAD PUSH3 0x461BCD PUSH1 0xE5 SHL DUP2 MSTORE PUSH1 0x20 PUSH1 0x4 DUP3 ADD MSTORE PUSH1 0x10 PUSH1 0x24 DUP3 ADD MSTORE PUSH16 0x151A5B595B1BD8DAC8195E1C1A5C9959 PUSH1 0x82 SHL PUSH1 0x44 DUP3 ADD MSTORE PUSH1 0x64 ADD JUMPDEST PUSH1 0x40 MLOAD DUP1 SWAP2 SUB SWAP1 REVERT JUMPDEST PUSH2 0x3BE PUSH2 0x1391 JUMP JUMPDEST PUSH1 0x2 SLOAD PUSH2 0x100 SWAP1 DIV PUSH1 0xFF AND ISZERO PUSH2 0x3E6 JUMPI PUSH1 0x40 MLOAD PUSH3 0x461BCD PUSH1 0xE5 SHL DUP2 MSTORE PUSH1 0x4 ADD PUSH2 0x3AD SWAP1 PUSH2 0x14E8 JUMP JUMPDEST PUSH1 0x2 SLOAD PUSH3 0x10000 SWAP1 DIV PUSH1 0xFF AND ISZERO PUSH2 0x40F JUMPI PUSH1 0x40 MLOAD PUSH3 0x461BCD PUSH1 0xE5 SHL DUP2 MSTORE PUSH1 0x4 ADD PUSH2 0x3AD SWAP1 PUSH2 0x1512 JUMP JUMPDEST CALLER PUSH1 0x1 PUSH1 0x1 PUSH1 0xA0 SHL SUB PUSH32 0x0 AND EQ PUSH2 0x487 JUMPI PUSH1 0x40 MLOAD PUSH3 0x461BCD PUSH1 0xE5 SHL DUP2 MSTORE PUSH1 0x20 PUSH1 0x4 DUP3 ADD MSTORE PUSH1 0x1F PUSH1 0x24 DUP3 ADD MSTORE PUSH32 0x4F6E6C79206D616B65722063616E20656D657267656E637920726566756E6400 PUSH1 0x44 DUP3 ADD MSTORE PUSH1 0x64 ADD PUSH2 0x3AD JUMP JUMPDEST PUSH1 0x2 DUP1 SLOAD PUSH3 0xFF0000 NOT AND PUSH3 0x10000 OR SWAP1 SSTORE PUSH1 0x40 MLOAD PUSH4 0xA9059CBB PUSH1 0xE0 SHL DUP2 MSTORE PUSH1 0x1 PUSH1 0x1 PUSH1 0xA0 SHL SUB PUSH32 0x0 DUP2 AND PUSH1 0x4 DUP4 ADD MSTORE PUSH32 0x0 PUSH1 0x24 DUP4 ADD MSTORE PUSH32 0x0 AND SWAP1 PUSH4 0xA9059CBB SWAP1 PUSH1 0x44 ADD PUSH1 0x20 PUSH1 0x40 MLOAD DUP1 DUP4 SUB DUP2 PUSH1 0x0 DUP8 GAS CALL ISZERO DUP1 ISZERO PUSH2 0x546 JUMPI RETURNDATASIZE PUSH1 0x0 DUP1 RETURNDATACOPY RETURNDATASIZE PUSH1 0x0 REVERT JUMPDEST POP POP POP POP PUSH1 0x40 MLOAD RETURNDATASIZE PUSH1 0x1F NOT PUSH1 0x1F DUP3 ADD AND DUP3 ADD DUP1 PUSH1 0x40 MSTORE POP DUP2 ADD SWAP1 PUSH2 0x56A SWAP2 SWAP1 PUSH2 0x153C JUMP JUMPDEST PUSH2 0x586 JUMPI PUSH1 0x40 MLOAD PUSH3 0x461BCD PUSH1 0xE5 SHL DUP2 MSTORE PUSH1 0x4 ADD PUSH2 0x3AD SWAP1 PUSH2 0x155E JUMP JUMPDEST PUSH32 0x0 PUSH1 0x1 PUSH1 0x1 PUSH1 0xA0 SHL SUB AND PUSH32 0x894CE7CC354D2A39DE53F8DAB6B0AD8C5AC65641E68AA2154FDB88BCC387E3DD PUSH32 0x0 PUSH1 0x40 MLOAD PUSH2 0x601 SWAP2 DUP2 MSTORE PUSH1 0x20 ADD SWAP1 JUMP JUMPDEST PUSH1 0x40 MLOAD DUP1 SWAP2 SUB SWAP1 LOG2 PUSH2 0x613 PUSH1 0x1 PUSH1 0x0 SSTORE JUMP JUMPDEST JUMP JUMPDEST PUSH1 0x3 DUP1 SLOAD PUSH2 0x622 SWAP1 PUSH2 0x158C JUMP JUMPDEST DUP1 PUSH1 0x1F ADD PUSH1 0x20 DUP1 SWAP2 DIV MUL PUSH1 0x20 ADD PUSH1 0x40 MLOAD SWAP1 DUP2 ADD PUSH1 0x40 MSTORE DUP1 SWAP3 SWAP2 SWAP1 DUP2 DUP2 MSTORE PUSH1 0x20 ADD DUP3 DUP1 SLOAD PUSH2 0x64E SWAP1 PUSH2 0x158C JUMP JUMPDEST DUP1 ISZERO PUSH2 0x69B JUMPI DUP1 PUSH1 0x1F LT PUSH2 0x670 JUMPI PUSH2 0x100 DUP1 DUP4 SLOAD DIV MUL DUP4 MSTORE SWAP2 PUSH1 0x20 ADD SWAP2 PUSH2 0x69B JUMP JUMPDEST DUP3 ADD SWAP2 SWAP1 PUSH1 0x0 MSTORE PUSH1 0x20 PUSH1 0x0 KECCAK256 SWAP1 JUMPDEST DUP2 SLOAD DUP2 MSTORE SWAP1 PUSH1 0x1 ADD SWAP1 PUSH1 0x20 ADD DUP1 DUP4 GT PUSH2 0x67E JUMPI DUP3 SWAP1 SUB PUSH1 0x1F AND DUP3 ADD SWAP2 JUMPDEST POP POP POP POP POP DUP2 JUMP JUMPDEST PUSH1 0x1 DUP1 SLOAD PUSH2 0x622 SWAP1 PUSH2 0x158C JUMP JUMPDEST PUSH32 0x0 TIMESTAMP LT ISZERO DUP1 ISZERO PUSH2 0x70C JUMPI POP PUSH2 0x708 PUSH3 0x15180 PUSH32 0x0 PUSH2 0x15DC JUMP JUMPDEST TIMESTAMP GT ISZERO JUMPDEST PUSH2 0x74F JUMPI PUSH1 0x40 MLOAD PUSH3 0x461BCD PUSH1 0xE5 SHL DUP2 MSTORE PUSH1 0x20 PUSH1 0x4 DUP3 ADD MSTORE PUSH1 0x14 PUSH1 0x24 DUP3 ADD MSTORE PUSH20 0x4E6F7420696E2072657665616C2077696E646F77 PUSH1 0x60 SHL PUSH1 0x44 DUP3 ADD MSTORE PUSH1 0x64 ADD PUSH2 0x3AD JUMP JUMPDEST PUSH2 0x757 PUSH2 0x1391 JUMP JUMPDEST PUSH1 0x2 SLOAD PUSH2 0x100 SWAP1 DIV PUSH1 0xFF AND ISZERO PUSH2 0x77F JUMPI PUSH1 0x40 MLOAD PUSH3 0x461BCD PUSH1 0xE5 SHL DUP2 MSTORE PUSH1 0x4 ADD PUSH2 0x3AD SWAP1 PUSH2 0x14E8 JUMP JUMPDEST PUSH1 0x2 SLOAD PUSH3 0x10000 SWAP1 DIV PUSH1 0xFF AND ISZERO PUSH2 0x7A8 JUMPI PUSH1 0x40 MLOAD PUSH3 0x461BCD PUSH1 0xE5 SHL DUP2 MSTORE PUSH1 0x4 ADD PUSH2 0x3AD SWAP1 PUSH2 0x1512 JUMP JUMPDEST PUSH1 0x2 SLOAD PUSH1 0xFF AND ISZERO PUSH2 0x7F5 JUMPI PUSH1 0x40 MLOAD PUSH3 0x461BCD PUSH1 0xE5 SHL DUP2 MSTORE PUSH1 0x20 PUSH1 0x4 DUP3 ADD MSTORE PUSH1 0x17 PUSH1 0x24 DUP3 ADD MSTORE PUSH23 0x14D958DC995D08185B1C9958591E481C995D99585B1959 PUSH1 0x4A SHL PUSH1 0x44 DUP3 ADD MSTORE PUSH1 0x64 ADD PUSH2 0x3AD JUMP JUMPDEST PUSH1 0x1 PUSH1 0x1 PUSH1 0xA0 SHL SUB DUP2 AND PUSH2 0x841 JUMPI PUSH1 0x40 MLOAD PUSH3 0x461BCD PUSH1 0xE5 SHL DUP2 MSTORE PUSH1 0x20 PUSH1 0x4 DUP3 ADD MSTORE PUSH1 0x13 PUSH1 0x24 DUP3 ADD MSTORE PUSH19 0x496E76616C69642062656E6566696369617279 PUSH1 0x68 SHL PUSH1 0x44 DUP3 ADD MSTORE PUSH1 0x64 ADD PUSH2 0x3AD JUMP JUMPDEST PUSH1 0x0 DUP4 DUP4 PUSH1 0x40 MLOAD PUSH1 0x20 ADD PUSH2 0x856 SWAP3 SWAP2 SWAP1 PUSH2 0x15F5 JUMP JUMPDEST PUSH1 0x40 MLOAD PUSH1 0x20 DUP2 DUP4 SUB SUB DUP2 MSTORE SWAP1 PUSH1 0x40 MSTORE DUP1 MLOAD SWAP1 PUSH1 0x20 ADD KECCAK256 SWAP1 POP PUSH32 0x0 DUP2 EQ PUSH2 0x8CE JUMPI PUSH1 0x40 MLOAD PUSH3 0x461BCD PUSH1 0xE5 SHL DUP2 MSTORE PUSH1 0x20 PUSH1 0x4 DUP3 ADD MSTORE PUSH1 0xE PUSH1 0x24 DUP3 ADD MSTORE PUSH14 0x125B9D985B1A59081CD958DC995D PUSH1 0x92 SHL PUSH1 0x44 DUP3 ADD MSTORE PUSH1 0x64 ADD PUSH2 0x3AD JUMP JUMPDEST PUSH1 0x2 DUP1 SLOAD PUSH2 0xFFFF NOT AND PUSH2 0x101 OR SWAP1 SSTORE PUSH1 0x3 PUSH2 0x8EA DUP5 DUP7 DUP4 PUSH2 0x1669 JUMP JUMPDEST POP PUSH1 0x4 DUP1 SLOAD PUSH1 0x1 PUSH1 0x1 PUSH1 0xA0 SHL SUB NOT AND PUSH1 0x1 PUSH1 0x1 PUSH1 0xA0 SHL SUB DUP5 DUP2 AND SWAP2 DUP3 OR DUP4 SSTORE PUSH1 0x40 MLOAD PUSH4 0xA9059CBB PUSH1 0xE0 SHL DUP2 MSTORE SWAP3 DUP4 ADD SWAP2 SWAP1 SWAP2 MSTORE PUSH32 0x0 PUSH1 0x24 DUP4 ADD MSTORE PUSH32 0x0 AND SWAP1 PUSH4 0xA9059CBB SWAP1 PUSH1 0x44 ADD PUSH1 0x20 PUSH1 0x40 MLOAD DUP1 DUP4 SUB DUP2 PUSH1 0x0 DUP8 GAS CALL ISZERO DUP1 ISZERO PUSH2 0x98E JUMPI RETURNDATASIZE PUSH1 0x0 DUP1 RETURNDATACOPY RETURNDATASIZE PUSH1 0x0 REVERT JUMPDEST POP POP POP POP PUSH1 0x40 MLOAD RETURNDATASIZE PUSH1 0x1F NOT PUSH1 0x1F DUP3 ADD AND DUP3 ADD DUP1 PUSH1 0x40 MSTORE POP DUP2 ADD SWAP1 PUSH2 0x9B2 SWAP2 SWAP1 PUSH2 0x153C JUMP JUMPDEST PUSH2 0x9CE JUMPI PUSH1 0x40 MLOAD PUSH3 0x461BCD PUSH1 0xE5 SHL DUP2 MSTORE PUSH1 0x4 ADD PUSH2 0x3AD SWAP1 PUSH2 0x155E JUMP JUMPDEST CALLER PUSH1 0x1 PUSH1 0x1 PUSH1 0xA0 SHL SUB AND PUSH31 0xEB786744A9F65011038C21EFFF745D1E8909171BD3F11D61DCE3E65037D002 DUP6 DUP6 PUSH1 0x40 MLOAD PUSH2 0xA08 SWAP3 SWAP2 SWAP1 PUSH2 0x172A JUMP JUMPDEST PUSH1 0x40 MLOAD DUP1 SWAP2 SUB SWAP1 LOG2 DUP2 PUSH1 0x1 PUSH1 0x1 PUSH1 0xA0 SHL SUB AND PUSH32 0xE327B247066BDF32CF2493778E3FCE4339B69C1E379A3B0DC780779BF67FE155 PUSH32 0x0 PUSH1 0x40 MLOAD PUSH2 0xA6B SWAP2 DUP2 MSTORE PUSH1 0x20 ADD SWAP1 JUMP JUMPDEST PUSH1 0x40 MLOAD DUP1 SWAP2 SUB SWAP1 LOG2 POP PUSH2 0xA7E PUSH1 0x1 PUSH1 0x0 SSTORE JUMP JUMPDEST POP POP POP JUMP JUMPDEST PUSH1 0x0 DUP1 DUP1 DUP1 DUP1 DUP1 PUSH32 0x0 TIMESTAMP LT ISZERO PUSH2 0xAE3 JUMPI PUSH2 0xADC TIMESTAMP PUSH32 0x0 PUSH2 0x1759 JUMP JUMPDEST SWAP1 POP PUSH2 0xB51 JUMP JUMPDEST PUSH2 0xB10 PUSH3 0x15180 PUSH32 0x0 PUSH2 0x15DC JUMP JUMPDEST TIMESTAMP GT PUSH2 0xB51 JUMPI TIMESTAMP PUSH2 0xB44 PUSH3 0x15180 PUSH32 0x0 PUSH2 0x15DC JUMP JUMPDEST PUSH2 0xB4E SWAP2 SWAP1 PUSH2 0x1759 JUMP JUMPDEST SWAP1 POP JUMPDEST PUSH1 0x2 SLOAD PUSH1 0x4 SLOAD PUSH1 0xFF DUP1 DUP4 AND SWAP10 PUSH2 0x100 DUP5 DIV DUP3 AND SWAP10 POP PUSH3 0x10000 SWAP1 SWAP4 DIV AND SWAP7 POP PUSH1 0x1 PUSH1 0x1 PUSH1 0xA0 SHL SUB AND SWAP5 POP SWAP1 SWAP3 POP SWAP1 POP JUMP JUMPDEST PUSH2 0xB8A PUSH2 0x1391 JUMP JUMPDEST PUSH1 0x2 SLOAD PUSH2 0x100 SWAP1 DIV PUSH1 0xFF AND ISZERO PUSH2 0xBB2 JUMPI PUSH1 0x40 MLOAD PUSH3 0x461BCD PUSH1 0xE5 SHL DUP2 MSTORE PUSH1 0x4 ADD PUSH2 0x3AD SWAP1 PUSH2 0x14E8 JUMP JUMPDEST PUSH1 0x2 SLOAD PUSH3 0x10000 SWAP1 DIV PUSH1 0xFF AND ISZERO PUSH2 0xBDB JUMPI PUSH1 0x40 MLOAD PUSH3 0x461BCD PUSH1 0xE5 SHL DUP2 MSTORE PUSH1 0x4 ADD PUSH2 0x3AD SWAP1 PUSH2 0x1512 JUMP JUMPDEST PUSH2 0xC08 PUSH3 0x15180 PUSH32 0x0 PUSH2 0x15DC JUMP JUMPDEST TIMESTAMP GT PUSH2 0xC56 JUMPI PUSH1 0x40 MLOAD PUSH3 0x461BCD PUSH1 0xE5 SHL DUP2 MSTORE PUSH1 0x20 PUSH1 0x4 DUP3 ADD MSTORE PUSH1 0x19 PUSH1 0x24 DUP3 ADD MSTORE PUSH32 0x52657665616C2077696E646F77206E6F74206578706972656400000000000000 PUSH1 0x44 DUP3 ADD MSTORE PUSH1 0x64 ADD PUSH2 0x3AD JUMP JUMPDEST PUSH1 0x2 SLOAD PUSH1 0xFF AND ISZERO PUSH2 0x487 JUMPI PUSH1 0x40 MLOAD PUSH3 0x461BCD PUSH1 0xE5 SHL DUP2 MSTORE PUSH1 0x20 PUSH1 0x4 DUP3 ADD MSTORE PUSH1 0x13 PUSH1 0x24 DUP3 ADD MSTORE PUSH19 0x14D958DC995D081DD85CC81C995D99585B1959 PUSH1 0x6A SHL PUSH1 0x44 DUP3 ADD MSTORE PUSH1 0x64 ADD PUSH2 0x3AD JUMP JUMPDEST PUSH1 0x0 DUP1 PUSH1 0x0 DUP1 PUSH1 0x60 PUSH32 0x0 PUSH32 0x0 PUSH32 0x0 PUSH32 0x0 PUSH1 0x1 DUP1 DUP1 SLOAD PUSH2 0xD39 SWAP1 PUSH2 0x158C JUMP JUMPDEST DUP1 PUSH1 0x1F ADD PUSH1 0x20 DUP1 SWAP2 DIV MUL PUSH1 0x20 ADD PUSH1 0x40 MLOAD SWAP1 DUP2 ADD PUSH1 0x40 MSTORE DUP1 SWAP3 SWAP2 SWAP1 DUP2 DUP2 MSTORE PUSH1 0x20 ADD DUP3 DUP1 SLOAD PUSH2 0xD65 SWAP1 PUSH2 0x158C JUMP JUMPDEST DUP1 ISZERO PUSH2 0xDB2 JUMPI DUP1 PUSH1 0x1F LT PUSH2 0xD87 JUMPI PUSH2 0x100 DUP1 DUP4 SLOAD DIV MUL DUP4 MSTORE SWAP2 PUSH1 0x20 ADD SWAP2 PUSH2 0xDB2 JUMP JUMPDEST DUP3 ADD SWAP2 SWAP1 PUSH1 0x0 MSTORE PUSH1 0x20 PUSH1 0x0 KECCAK256 SWAP1 JUMPDEST DUP2 SLOAD DUP2 MSTORE SWAP1 PUSH1 0x1 ADD SWAP1 PUSH1 0x20 ADD DUP1 DUP4 GT PUSH2 0xD95 JUMPI DUP3 SWAP1 SUB PUSH1 0x1F AND DUP3 ADD SWAP2 JUMPDEST POP POP POP POP POP SWAP1 POP SWAP5 POP SWAP5 POP SWAP5 POP SWAP5 POP SWAP5 POP SWAP1 SWAP2 SWAP3 SWAP4 SWAP5 JUMP JUMPDEST PUSH2 0xDD2 PUSH2 0x1391 JUMP JUMPDEST PUSH1 0x2 SLOAD PUSH2 0x100 SWAP1 DIV PUSH1 0xFF AND ISZERO PUSH2 0xDFA JUMPI PUSH1 0x40 MLOAD PUSH3 0x461BCD PUSH1 0xE5 SHL DUP2 MSTORE PUSH1 0x4 ADD PUSH2 0x3AD SWAP1 PUSH2 0x14E8 JUMP JUMPDEST PUSH1 0x2 SLOAD PUSH3 0x10000 SWAP1 DIV PUSH1 0xFF AND ISZERO PUSH2 0xE23 JUMPI PUSH1 0x40 MLOAD PUSH3 0x461BCD PUSH1 0xE5 SHL DUP2 MSTORE PUSH1 0x4 ADD PUSH2 0x3AD SWAP1 PUSH2 0x1512 JUMP JUMPDEST PUSH1 0x2 SLOAD PUSH1 0xFF AND PUSH2 0xE6B JUMPI PUSH1 0x40 MLOAD PUSH3 0x461BCD PUSH1 0xE5 SHL DUP2 MSTORE PUSH1 0x20 PUSH1 0x4 DUP3 ADD MSTORE PUSH1 0x13 PUSH1 0x24 DUP3 ADD MSTORE PUSH19 0x14D958DC995D081B9BDD081C995D99585B1959 PUSH1 0x6A SHL PUSH1 0x44 DUP3 ADD MSTORE PUSH1 0x64 ADD PUSH2 0x3AD JUMP JUMPDEST PUSH1 0x4 SLOAD PUSH1 0x1 PUSH1 0x1 PUSH1 0xA0 SHL SUB AND PUSH2 0xEB8 JUMPI PUSH1 0x40 MLOAD PUSH3 0x461BCD PUSH1 0xE5 SHL DUP2 MSTORE PUSH1 0x20 PUSH1 0x4 DUP3 ADD MSTORE PUSH1 0x12 PUSH1 0x24 DUP3 ADD MSTORE PUSH18 0x139BC818995B99599A58DA585C9E481CD95D PUSH1 0x72 SHL PUSH1 0x44 DUP3 ADD MSTORE PUSH1 0x64 ADD PUSH2 0x3AD JUMP JUMPDEST PUSH1 0x2 DUP1 SLOAD PUSH2 0xFF00 NOT AND PUSH2 0x100 OR SWAP1 SSTORE PUSH1 0x4 DUP1 SLOAD PUSH1 0x40 MLOAD PUSH4 0xA9059CBB PUSH1 0xE0 SHL DUP2 MSTORE PUSH1 0x1 PUSH1 0x1 PUSH1 0xA0 SHL SUB SWAP2 DUP3 AND SWAP3 DUP2 ADD SWAP3 SWAP1 SWAP3 MSTORE PUSH32 0x0 PUSH1 0x24 DUP4 ADD MSTORE PUSH32 0x0 AND SWAP1 PUSH4 0xA9059CBB SWAP1 PUSH1 0x44 ADD PUSH1 0x20 PUSH1 0x40 MLOAD DUP1 DUP4 SUB DUP2 PUSH1 0x0 DUP8 GAS CALL ISZERO DUP1 ISZERO PUSH2 0xF5B JUMPI RETURNDATASIZE PUSH1 0x0 DUP1 RETURNDATACOPY RETURNDATASIZE PUSH1 0x0 REVERT JUMPDEST POP POP POP POP PUSH1 0x40 MLOAD RETURNDATASIZE PUSH1 0x1F NOT PUSH1 0x1F DUP3 ADD AND DUP3 ADD DUP1 PUSH1 0x40 MSTORE POP DUP2 ADD SWAP1 PUSH2 0xF7F SWAP2 SWAP1 PUSH2 0x153C JUMP JUMPDEST PUSH2 0xF9B JUMPI PUSH1 0x40 MLOAD PUSH3 0x461BCD PUSH1 0xE5 SHL DUP2 MSTORE PUSH1 0x4 ADD PUSH2 0x3AD SWAP1 PUSH2 0x155E JUMP JUMPDEST PUSH1 0x4 SLOAD PUSH1 0x40 MLOAD PUSH32 0x0 DUP2 MSTORE PUSH1 0x1 PUSH1 0x1 PUSH1 0xA0 SHL SUB SWAP1 SWAP2 AND SWAP1 PUSH32 0xE327B247066BDF32CF2493778E3FCE4339B69C1E379A3B0DC780779BF67FE155 SWAP1 PUSH1 0x20 ADD PUSH2 0x601 JUMP JUMPDEST PUSH1 0x2 SLOAD PUSH1 0x0 SWAP1 PUSH1 0xFF AND ISZERO DUP1 ISZERO PUSH2 0x1018 JUMPI POP PUSH1 0x2 SLOAD PUSH2 0x100 SWAP1 DIV PUSH1 0xFF AND ISZERO JUMPDEST DUP1 ISZERO PUSH2 0x102D JUMPI POP PUSH1 0x2 SLOAD PUSH3 0x10000 SWAP1 DIV PUSH1 0xFF AND ISZERO JUMPDEST DUP1 ISZERO PUSH2 0x1064 JUMPI POP PUSH2 0x1061 PUSH3 0x15180 PUSH32 0x0 PUSH2 0x15DC JUMP JUMPDEST TIMESTAMP GT JUMPDEST SWAP1 POP SWAP1 JUMP JUMPDEST PUSH1 0x2 SLOAD PUSH1 0x0 SWAP1 PUSH1 0xFF AND ISZERO DUP1 ISZERO PUSH2 0x1087 JUMPI POP PUSH1 0x2 SLOAD PUSH2 0x100 SWAP1 DIV PUSH1 0xFF AND ISZERO JUMPDEST DUP1 ISZERO PUSH2 0x109C JUMPI POP PUSH1 0x2 SLOAD PUSH3 0x10000 SWAP1 DIV PUSH1 0xFF AND ISZERO JUMPDEST DUP1 ISZERO PUSH2 0x10C8 JUMPI POP PUSH32 0x0 TIMESTAMP LT ISZERO JUMPDEST DUP1 ISZERO PUSH2 0x1064 JUMPI POP PUSH2 0x10FC PUSH3 0x15180 PUSH32 0x0 PUSH2 0x15DC JUMP JUMPDEST TIMESTAMP GT ISZERO SWAP1 POP SWAP1 JUMP JUMPDEST PUSH32 0x0 TIMESTAMP LT ISZERO DUP1 ISZERO PUSH2 0x1160 JUMPI POP PUSH2 0x115C PUSH3 0x15180 PUSH32 0x0 PUSH2 0x15DC JUMP JUMPDEST TIMESTAMP GT ISZERO JUMPDEST PUSH2 0x11A3 JUMPI PUSH1 0x40 MLOAD PUSH3 0x461BCD PUSH1 0xE5 SHL DUP2 MSTORE PUSH1 0x20 PUSH1 0x4 DUP3 ADD MSTORE PUSH1 0x14 PUSH1 0x24 DUP3 ADD MSTORE PUSH20 0x4E6F7420696E2072657665616C2077696E646F77 PUSH1 0x60 SHL PUSH1 0x44 DUP3 ADD MSTORE PUSH1 0x64 ADD PUSH2 0x3AD JUMP JUMPDEST PUSH1 0x2 SLOAD PUSH2 0x100 SWAP1 DIV PUSH1 0xFF AND ISZERO PUSH2 0x11CB JUMPI PUSH1 0x40 MLOAD PUSH3 0x461BCD PUSH1 0xE5 SHL DUP2 MSTORE PUSH1 0x4 ADD PUSH2 0x3AD SWAP1 PUSH2 0x14E8 JUMP JUMPDEST PUSH1 0x2 SLOAD PUSH3 0x10000 SWAP1 DIV PUSH1 0xFF AND ISZERO PUSH2 0x11F4 JUMPI PUSH1 0x40 MLOAD PUSH3 0x461BCD PUSH1 0xE5 SHL DUP2 MSTORE PUSH1 0x4 ADD PUSH2 0x3AD SWAP1 PUSH2 0x1512 JUMP JUMPDEST PUSH1 0x2 SLOAD PUSH1 0xFF AND ISZERO PUSH2 0x1241 JUMPI PUSH1 0x40 MLOAD PUSH3 0x461BCD PUSH1 0xE5 SHL DUP2 MSTORE PUSH1 0x20 PUSH1 0x4 DUP3 ADD MSTORE PUSH1 0x17 PUSH1 0x24 DUP3 ADD MSTORE PUSH23 0x14D958DC995D08185B1C9958591E481C995D99585B1959 PUSH1 0x4A SHL PUSH1 0x44 DUP3 ADD MSTORE PUSH1 0x64 ADD PUSH2 0x3AD JUMP JUMPDEST PUSH1 0x1 PUSH1 0x1 PUSH1 0xA0 SHL SUB DUP2 AND PUSH2 0x128D JUMPI PUSH1 0x40 MLOAD PUSH3 0x461BCD PUSH1 0xE5 SHL DUP2 MSTORE PUSH1 0x20 PUSH1 0x4 DUP3 ADD MSTORE PUSH1 0x13 PUSH1 0x24 DUP3 ADD MSTORE PUSH19 0x496E76616C69642062656E6566696369617279 PUSH1 0x68 SHL PUSH1 0x44 DUP3 ADD MSTORE PUSH1 0x64 ADD PUSH2 0x3AD JUMP JUMPDEST PUSH1 0x0 DUP4 DUP4 PUSH1 0x40 MLOAD PUSH1 0x20 ADD PUSH2 0x12A2 SWAP3 SWAP2 SWAP1 PUSH2 0x15F5 JUMP JUMPDEST PUSH1 0x40 MLOAD PUSH1 0x20 DUP2 DUP4 SUB SUB DUP2 MSTORE SWAP1 PUSH1 0x40 MSTORE DUP1 MLOAD SWAP1 PUSH1 0x20 ADD KECCAK256 SWAP1 POP PUSH32 0x0 DUP2 EQ PUSH2 0x131A JUMPI PUSH1 0x40 MLOAD PUSH3 0x461BCD PUSH1 0xE5 SHL DUP2 MSTORE PUSH1 0x20 PUSH1 0x4 DUP3 ADD MSTORE PUSH1 0xE PUSH1 0x24 DUP3 ADD MSTORE PUSH14 0x125B9D985B1A59081CD958DC995D PUSH1 0x92 SHL PUSH1 0x44 DUP3 ADD MSTORE PUSH1 0x64 ADD PUSH2 0x3AD JUMP JUMPDEST PUSH1 0x2 DUP1 SLOAD PUSH1 0xFF NOT AND PUSH1 0x1 OR SWAP1 SSTORE PUSH1 0x3 PUSH2 0x1334 DUP5 DUP7 DUP4 PUSH2 0x1669 JUMP JUMPDEST POP PUSH1 0x4 DUP1 SLOAD PUSH1 0x1 PUSH1 0x1 PUSH1 0xA0 SHL SUB NOT AND PUSH1 0x1 PUSH1 0x1 PUSH1 0xA0 SHL SUB DUP5 AND OR SWAP1 SSTORE PUSH1 0x40 MLOAD CALLER SWAP1 PUSH31 0xEB786744A9F65011038C21EFFF745D1E8909171BD3F11D61DCE3E65037D002 SWAP1 PUSH2 0x1383 SWAP1 DUP8 SWAP1 DUP8 SWAP1 PUSH2 0x172A JUMP JUMPDEST PUSH1 0x40 MLOAD DUP1 SWAP2 SUB SWAP1 LOG2 POP POP POP POP JUMP JUMPDEST PUSH1 0x2 PUSH1 0x0 SLOAD SUB PUSH2 0x13B4 JUMPI PUSH1 0x40 MLOAD PUSH4 0x3EE5AEB5 PUSH1 0xE0 SHL DUP2 MSTORE PUSH1 0x4 ADD PUSH1 0x40 MLOAD DUP1 SWAP2 SUB SWAP1 REVERT JUMPDEST PUSH1 0x2 PUSH1 0x0 SSTORE JUMP JUMPDEST PUSH1 0x0 DUP2 MLOAD DUP1 DUP5 MSTORE PUSH1 0x0 JUMPDEST DUP2 DUP2 LT ISZERO PUSH2 0x13E1 JUMPI PUSH1 0x20 DUP2 DUP6 ADD DUP2 ADD MLOAD DUP7 DUP4 ADD DUP3 ADD MSTORE ADD PUSH2 0x13C5 JUMP JUMPDEST POP PUSH1 0x0 PUSH1 0x20 DUP3 DUP7 ADD ADD MSTORE PUSH1 0x20 PUSH1 0x1F NOT PUSH1 0x1F DUP4 ADD AND DUP6 ADD ADD SWAP2 POP POP SWAP3 SWAP2 POP POP JUMP JUMPDEST PUSH1 0x20 DUP2 MSTORE PUSH1 0x0 PUSH2 0x1414 PUSH1 0x20 DUP4 ADD DUP5 PUSH2 0x13BB JUMP JUMPDEST SWAP4 SWAP3 POP POP POP JUMP JUMPDEST PUSH1 0x0 DUP1 PUSH1 0x0 PUSH1 0x40 DUP5 DUP7 SUB SLT ISZERO PUSH2 0x1430 JUMPI PUSH1 0x0 DUP1 REVERT JUMPDEST DUP4 CALLDATALOAD PUSH8 0xFFFFFFFFFFFFFFFF DUP1 DUP3 GT ISZERO PUSH2 0x1448 JUMPI PUSH1 0x0 DUP1 REVERT JUMPDEST DUP2 DUP7 ADD SWAP2 POP DUP7 PUSH1 0x1F DUP4 ADD SLT PUSH2 0x145C JUMPI PUSH1 0x0 DUP1 REVERT JUMPDEST DUP2 CALLDATALOAD DUP2 DUP2 GT ISZERO PUSH2 0x146B JUMPI PUSH1 0x0 DUP1 REVERT JUMPDEST DUP8 PUSH1 0x20 DUP3 DUP6 ADD ADD GT ISZERO PUSH2 0x147D JUMPI PUSH1 0x0 DUP1 REVERT JUMPDEST PUSH1 0x20 SWAP3 DUP4 ADD SWAP6 POP SWAP4 POP POP DUP5 ADD CALLDATALOAD PUSH1 0x1 PUSH1 0x1 PUSH1 0xA0 SHL SUB DUP2 AND DUP2 EQ PUSH2 0x149F JUMPI PUSH1 0x0 DUP1 REVERT JUMPDEST DUP1 SWAP2 POP POP SWAP3 POP SWAP3 POP SWAP3 JUMP JUMPDEST DUP6 DUP2 MSTORE DUP5 PUSH1 0x20 DUP3 ADD MSTORE PUSH1 0x1 DUP1 PUSH1 0xA0 SHL SUB DUP5 AND PUSH1 0x40 DUP3 ADD MSTORE DUP3 PUSH1 0x60 DUP3 ADD MSTORE PUSH1 0xA0 PUSH1 0x80 DUP3 ADD MSTORE PUSH1 0x0 PUSH2 0x14DD PUSH1 0xA0 DUP4 ADD DUP5 PUSH2 0x13BB JUMP JUMPDEST SWAP8 SWAP7 POP POP POP POP POP POP POP JUMP JUMPDEST PUSH1 0x20 DUP1 DUP3 MSTORE PUSH1 0x10 SWAP1 DUP3 ADD MSTORE PUSH16 0x105B1C9958591E481C995B19585CD959 PUSH1 0x82 SHL PUSH1 0x40 DUP3 ADD MSTORE PUSH1 0x60 ADD SWAP1 JUMP JUMPDEST PUSH1 0x20 DUP1 DUP3 MSTORE PUSH1 0x10 SWAP1 DUP3 ADD MSTORE PUSH16 0x105B1C9958591E481C99599D5B991959 PUSH1 0x82 SHL PUSH1 0x40 DUP3 ADD MSTORE PUSH1 0x60 ADD SWAP1 JUMP JUMPDEST PUSH1 0x0 PUSH1 0x20 DUP3 DUP5 SUB SLT ISZERO PUSH2 0x154E JUMPI PUSH1 0x0 DUP1 REVERT JUMPDEST DUP2 MLOAD DUP1 ISZERO ISZERO DUP2 EQ PUSH2 0x1414 JUMPI PUSH1 0x0 DUP1 REVERT JUMPDEST PUSH1 0x20 DUP1 DUP3 MSTORE PUSH1 0x14 SWAP1 DUP3 ADD MSTORE PUSH20 0x1554D110C81D1C985B9CD9995C8819985A5B1959 PUSH1 0x62 SHL PUSH1 0x40 DUP3 ADD MSTORE PUSH1 0x60 ADD SWAP1 JUMP JUMPDEST PUSH1 0x1 DUP2 DUP2 SHR SWAP1 DUP3 AND DUP1 PUSH2 0x15A0 JUMPI PUSH1 0x7F DUP3 AND SWAP2 POP JUMPDEST PUSH1 0x20 DUP3 LT DUP2 SUB PUSH2 0x15C0 JUMPI PUSH4 0x4E487B71 PUSH1 0xE0 SHL PUSH1 0x0 MSTORE PUSH1 0x22 PUSH1 0x4 MSTORE PUSH1 0x24 PUSH1 0x0 REVERT JUMPDEST POP SWAP2 SWAP1 POP JUMP JUMPDEST PUSH4 0x4E487B71 PUSH1 0xE0 SHL PUSH1 0x0 MSTORE PUSH1 0x11 PUSH1 0x4 MSTORE PUSH1 0x24 PUSH1 0x0 REVERT JUMPDEST DUP1 DUP3 ADD DUP1 DUP3 GT ISZERO PUSH2 0x15EF JUMPI PUSH2 0x15EF PUSH2 0x15C6 JUMP JUMPDEST SWAP3 SWAP2 POP POP JUMP JUMPDEST DUP2 DUP4 DUP3 CALLDATACOPY PUSH1 0x0 SWAP2 ADD SWAP1 DUP2 MSTORE SWAP2 SWAP1 POP JUMP JUMPDEST PUSH4 0x4E487B71 PUSH1 0xE0 SHL PUSH1 0x0 MSTORE PUSH1 0x41 PUSH1 0x4 MSTORE PUSH1 0x24 PUSH1 0x0 REVERT JUMPDEST PUSH1 0x1F DUP3 GT ISZERO PUSH2 0xA7E JUMPI PUSH1 0x0 DUP2 DUP2 MSTORE PUSH1 0x20 DUP2 KECCAK256 PUSH1 0x1F DUP6 ADD PUSH1 0x5 SHR DUP2 ADD PUSH1 0x20 DUP7 LT ISZERO PUSH2 0x1642 JUMPI POP DUP1 JUMPDEST PUSH1 0x1F DUP6 ADD PUSH1 0x5 SHR DUP3 ADD SWAP2 POP JUMPDEST DUP2 DUP2 LT ISZERO PUSH2 0x1661 JUMPI DUP3 DUP2 SSTORE PUSH1 0x1 ADD PUSH2 0x164E JUMP JUMPDEST POP POP POP POP POP POP JUMP JUMPDEST PUSH8 0xFFFFFFFFFFFFFFFF DUP4 GT ISZERO PUSH2 0x1681 JUMPI PUSH2 0x1681 PUSH2 0x1605 JUMP JUMPDEST PUSH2 0x1695 DUP4 PUSH2 0x168F DUP4 SLOAD PUSH2 0x158C JUMP JUMPDEST DUP4 PUSH2 0x161B JUMP JUMPDEST PUSH1 0x0 PUSH1 0x1F DUP5 GT PUSH1 0x1 DUP2 EQ PUSH2 0x16C9 JUMPI PUSH1 0x0 DUP6 ISZERO PUSH2 0x16B1 JUMPI POP DUP4 DUP3 ADD CALLDATALOAD JUMPDEST PUSH1 0x0 NOT PUSH1 0x3 DUP8 SWAP1 SHL SHR NOT AND PUSH1 0x1 DUP7 SWAP1 SHL OR DUP4 SSTORE PUSH2 0x1723 JUMP JUMPDEST PUSH1 0x0 DUP4 DUP2 MSTORE PUSH1 0x20 SWAP1 KECCAK256 PUSH1 0x1F NOT DUP7 AND SWAP1 DUP4 JUMPDEST DUP3 DUP2 LT ISZERO PUSH2 0x16FA JUMPI DUP7 DUP6 ADD CALLDATALOAD DUP3 SSTORE PUSH1 0x20 SWAP5 DUP6 ADD SWAP5 PUSH1 0x1 SWAP1 SWAP3 ADD SWAP2 ADD PUSH2 0x16DA JUMP JUMPDEST POP DUP7 DUP3 LT ISZERO PUSH2 0x1717 JUMPI PUSH1 0x0 NOT PUSH1 0xF8 DUP9 PUSH1 0x3 SHL AND SHR NOT DUP5 DUP8 ADD CALLDATALOAD AND DUP2 SSTORE JUMPDEST POP POP PUSH1 0x1 DUP6 PUSH1 0x1 SHL ADD DUP4 SSTORE JUMPDEST POP POP POP POP POP JUMP JUMPDEST PUSH1 0x20 DUP2 MSTORE DUP2 PUSH1 0x20 DUP3 ADD MSTORE DUP2 DUP4 PUSH1 0x40 DUP4 ADD CALLDATACOPY PUSH1 0x0 DUP2 DUP4 ADD PUSH1 0x40 SWAP1 DUP2 ADD SWAP2 SWAP1 SWAP2 MSTORE PUSH1 0x1F SWAP1 SWAP3 ADD PUSH1 0x1F NOT AND ADD ADD SWAP2 SWAP1 POP JUMP JUMPDEST DUP2 DUP2 SUB DUP2 DUP2 GT ISZERO PUSH2 0x15EF JUMPI PUSH2 0x15EF PUSH2 0x15C6 JUMP INVALID LOG2 PUSH5 0x6970667358 0x22 SLT KECCAK256 PUSH32 0xB61D9D7DADA002692676709D7E8B0BC1BCC68ADC7EECA367C9023B043819B964 PUSH20 0x6F6C634300081400330000000000000000000000 "},"methodIdentifiers":{"REVEAL_WINDOW()":"17e931cf","amount()":"aa8c217c","beneficiary()":"38af3eed","canRefund()":"7f83a4a6","canReveal()":"a9842610","emergencyRefund()":"16bfe25c","getInfo()":"5a9b0b89","getStatus()":"4e69d560","isRefunded()":"779cd083","isReleased()":"fa2a8997","isRevealed()":"54214f69","makerAddress()":"1e04c9cb","metadata()":"392f37e9","refund()":"590e1ae3","releaseFunds()":"69d89575","revealAndRelease(string,address)":"4ca372e8","revealSecret(string,address)":"f23e4291","revealedSecret()":"3810f04f","secretHash()":"d29e6803","timelock()":"d33219b4","usdc()":"3e413bee"}}}}}