{
  "_format": "hh-sol-artifact-1",
  "contractName": "DutchAuctionEVM",
  "sourceName": "contracts/DutchAuctionEVM.sol",
  "abi": [
    {
      "inputs": [
        {
          "internalType": "address",
          "name": "_usdc",
          "type": "address"
        }
      ],
      "stateMutability": "nonpayable",
      "type": "constructor"
    },
    {
      "inputs": [
        {
          "internalType": "address",
          "name": "owner",
          "type": "address"
        }
      ],
      "name": "OwnableInvalidOwner",
      "type": "error"
    },
    {
      "inputs": [
        {
          "internalType": "address",
          "name": "account",
          "type": "address"
        }
      ],
      "name": "OwnableUnauthorizedAccount",
      "type": "error"
    },
    {
      "inputs": [],
      "name": "ReentrancyGuardReentrantCall",
      "type": "error"
    },
    {
      "anonymous": false,
      "inputs": [
        {
          "indexed": true,
          "internalType": "uint256",
          "name": "auctionId",
          "type": "uint256"
        },
        {
          "indexed": true,
          "internalType": "address",
          "name": "seller",
          "type": "address"
        },
        {
          "indexed": true,
          "internalType": "address",
          "name": "escrowContract",
          "type": "address"
        },
        {
          "indexed": false,
          "internalType": "uint256",
          "name": "startPrice",
          "type": "uint256"
        },
        {
          "indexed": false,
          "internalType": "uint256",
          "name": "endPrice",
          "type": "uint256"
        },
        {
          "indexed": false,
          "internalType": "uint256",
          "name": "duration",
          "type": "uint256"
        }
      ],
      "name": "AuctionCreated",
      "type": "event"
    },
    {
      "anonymous": false,
      "inputs": [
        {
          "indexed": true,
          "internalType": "uint256",
          "name": "auctionId",
          "type": "uint256"
        },
        {
          "indexed": true,
          "internalType": "address",
          "name": "winner",
          "type": "address"
        },
        {
          "indexed": false,
          "internalType": "uint256",
          "name": "finalPrice",
          "type": "uint256"
        }
      ],
      "name": "AuctionEnded",
      "type": "event"
    },
    {
      "anonymous": false,
      "inputs": [
        {
          "indexed": true,
          "internalType": "uint256",
          "name": "auctionId",
          "type": "uint256"
        },
        {
          "indexed": true,
          "internalType": "address",
          "name": "bidder",
          "type": "address"
        },
        {
          "indexed": false,
          "internalType": "uint256",
          "name": "price",
          "type": "uint256"
        },
        {
          "indexed": false,
          "internalType": "uint256",
          "name": "timestamp",
          "type": "uint256"
        }
      ],
      "name": "BidPlaced",
      "type": "event"
    },
    {
      "anonymous": false,
      "inputs": [
        {
          "indexed": true,
          "internalType": "uint256",
          "name": "auctionId",
          "type": "uint256"
        },
        {
          "indexed": true,
          "internalType": "address",
          "name": "escrow",
          "type": "address"
        },
        {
          "indexed": true,
          "internalType": "address",
          "name": "beneficiary",
          "type": "address"
        }
      ],
      "name": "EscrowReleased",
      "type": "event"
    },
    {
      "anonymous": false,
      "inputs": [
        {
          "indexed": true,
          "internalType": "address",
          "name": "previousOwner",
          "type": "address"
        },
        {
          "indexed": true,
          "internalType": "address",
          "name": "newOwner",
          "type": "address"
        }
      ],
      "name": "OwnershipTransferred",
      "type": "event"
    },
    {
      "inputs": [],
      "name": "MAX_FEE",
      "outputs": [
        {
          "internalType": "uint256",
          "name": "",
          "type": "uint256"
        }
      ],
      "stateMutability": "view",
      "type": "function"
    },
    {
      "inputs": [
        {
          "internalType": "uint256",
          "name": "",
          "type": "uint256"
        }
      ],
      "name": "auctions",
      "outputs": [
        {
          "internalType": "address",
          "name": "escrowContract",
          "type": "address"
        },
        {
          "internalType": "address",
          "name": "seller",
          "type": "address"
        },
        {
          "internalType": "uint256",
          "name": "startPrice",
          "type": "uint256"
        },
        {
          "internalType": "uint256",
          "name": "endPrice",
          "type": "uint256"
        },
        {
          "internalType": "uint256",
          "name": "startTime",
          "type": "uint256"
        },
        {
          "internalType": "uint256",
          "name": "duration",
          "type": "uint256"
        },
        {
          "internalType": "string",
          "name": "secret",
          "type": "string"
        },
        {
          "internalType": "bytes32",
          "name": "secretHash",
          "type": "bytes32"
        },
        {
          "internalType": "bool",
          "name": "isActive",
          "type": "bool"
        },
        {
          "internalType": "bool",
          "name": "isEnded",
          "type": "bool"
        },
        {
          "internalType": "address",
          "name": "winner",
          "type": "address"
        },
        {
          "internalType": "uint256",
          "name": "finalPrice",
          "type": "uint256"
        },
        {
          "internalType": "string",
          "name": "metadata",
          "type": "string"
        }
      ],
      "stateMutability": "view",
      "type": "function"
    },
    {
      "inputs": [
        {
          "internalType": "address",
          "name": "escrowContract",
          "type": "address"
        },
        {
          "internalType": "uint256",
          "name": "startPrice",
          "type": "uint256"
        },
        {
          "internalType": "uint256",
          "name": "endPrice",
          "type": "uint256"
        },
        {
          "internalType": "uint256",
          "name": "duration",
          "type": "uint256"
        },
        {
          "internalType": "bytes32",
          "name": "secretHash",
          "type": "bytes32"
        },
        {
          "internalType": "string",
          "name": "metadata",
          "type": "string"
        }
      ],
      "name": "createAuction",
      "outputs": [
        {
          "internalType": "uint256",
          "name": "",
          "type": "uint256"
        }
      ],
      "stateMutability": "nonpayable",
      "type": "function"
    },
    {
      "inputs": [
        {
          "internalType": "uint256",
          "name": "auctionId",
          "type": "uint256"
        }
      ],
      "name": "endExpiredAuction",
      "outputs": [],
      "stateMutability": "nonpayable",
      "type": "function"
    },
    {
      "inputs": [
        {
          "internalType": "uint256",
          "name": "auctionId",
          "type": "uint256"
        }
      ],
      "name": "getAuction",
      "outputs": [
        {
          "internalType": "address",
          "name": "escrowContract",
          "type": "address"
        },
        {
          "internalType": "address",
          "name": "seller",
          "type": "address"
        },
        {
          "internalType": "uint256",
          "name": "startPrice",
          "type": "uint256"
        },
        {
          "internalType": "uint256",
          "name": "endPrice",
          "type": "uint256"
        },
        {
          "internalType": "uint256",
          "name": "timeRemaining",
          "type": "uint256"
        },
        {
          "internalType": "bool",
          "name": "isActive",
          "type": "bool"
        },
        {
          "internalType": "bool",
          "name": "isEnded",
          "type": "bool"
        },
        {
          "internalType": "address",
          "name": "winner",
          "type": "address"
        },
        {
          "internalType": "uint256",
          "name": "finalPrice",
          "type": "uint256"
        },
        {
          "internalType": "uint256",
          "name": "currentPrice",
          "type": "uint256"
        }
      ],
      "stateMutability": "view",
      "type": "function"
    },
    {
      "inputs": [
        {
          "internalType": "uint256",
          "name": "auctionId",
          "type": "uint256"
        }
      ],
      "name": "getCurrentPrice",
      "outputs": [
        {
          "internalType": "uint256",
          "name": "",
          "type": "uint256"
        }
      ],
      "stateMutability": "view",
      "type": "function"
    },
    {
      "inputs": [
        {
          "internalType": "uint256",
          "name": "auctionId",
          "type": "uint256"
        }
      ],
      "name": "getTimeRemaining",
      "outputs": [
        {
          "internalType": "uint256",
          "name": "",
          "type": "uint256"
        }
      ],
      "stateMutability": "view",
      "type": "function"
    },
    {
      "inputs": [],
      "name": "getTotalAuctions",
      "outputs": [
        {
          "internalType": "uint256",
          "name": "",
          "type": "uint256"
        }
      ],
      "stateMutability": "view",
      "type": "function"
    },
    {
      "inputs": [
        {
          "internalType": "address",
          "name": "user",
          "type": "address"
        }
      ],
      "name": "getUserAuctions",
      "outputs": [
        {
          "internalType": "uint256[]",
          "name": "",
          "type": "uint256[]"
        }
      ],
      "stateMutability": "view",
      "type": "function"
    },
    {
      "inputs": [
        {
          "internalType": "address",
          "name": "user",
          "type": "address"
        }
      ],
      "name": "getUserBids",
      "outputs": [
        {
          "internalType": "uint256[]",
          "name": "",
          "type": "uint256[]"
        }
      ],
      "stateMutability": "view",
      "type": "function"
    },
    {
      "inputs": [
        {
          "internalType": "uint256",
          "name": "auctionId",
          "type": "uint256"
        }
      ],
      "name": "isAuctionActive",
      "outputs": [
        {
          "internalType": "bool",
          "name": "",
          "type": "bool"
        }
      ],
      "stateMutability": "view",
      "type": "function"
    },
    {
      "inputs": [],
      "name": "nextAuctionId",
      "outputs": [
        {
          "internalType": "uint256",
          "name": "",
          "type": "uint256"
        }
      ],
      "stateMutability": "view",
      "type": "function"
    },
    {
      "inputs": [],
      "name": "owner",
      "outputs": [
        {
          "internalType": "address",
          "name": "",
          "type": "address"
        }
      ],
      "stateMutability": "view",
      "type": "function"
    },
    {
      "inputs": [
        {
          "internalType": "uint256",
          "name": "auctionId",
          "type": "uint256"
        }
      ],
      "name": "placeBid",
      "outputs": [],
      "stateMutability": "nonpayable",
      "type": "function"
    },
    {
      "inputs": [],
      "name": "protocolFeePercent",
      "outputs": [
        {
          "internalType": "uint256",
          "name": "",
          "type": "uint256"
        }
      ],
      "stateMutability": "view",
      "type": "function"
    },
    {
      "inputs": [
        {
          "internalType": "uint256",
          "name": "auctionId",
          "type": "uint256"
        },
        {
          "internalType": "string",
          "name": "secret",
          "type": "string"
        }
      ],
      "name": "releaseEscrow",
      "outputs": [],
      "stateMutability": "nonpayable",
      "type": "function"
    },
    {
      "inputs": [],
      "name": "renounceOwnership",
      "outputs": [],
      "stateMutability": "nonpayable",
      "type": "function"
    },
    {
      "inputs": [
        {
          "internalType": "uint256",
          "name": "_newFeePercent",
          "type": "uint256"
        }
      ],
      "name": "setProtocolFee",
      "outputs": [],
      "stateMutability": "nonpayable",
      "type": "function"
    },
    {
      "inputs": [
        {
          "internalType": "address",
          "name": "newOwner",
          "type": "address"
        }
      ],
      "name": "transferOwnership",
      "outputs": [],
      "stateMutability": "nonpayable",
      "type": "function"
    },
    {
      "inputs": [],
      "name": "usdc",
      "outputs": [
        {
          "internalType": "contract IERC20",
          "name": "",
          "type": "address"
        }
      ],
      "stateMutability": "view",
      "type": "function"
    },
    {
      "inputs": [
        {
          "internalType": "address",
          "name": "",
          "type": "address"
        },
        {
          "internalType": "uint256",
          "name": "",
          "type": "uint256"
        }
      ],
      "name": "userAuctions",
      "outputs": [
        {
          "internalType": "uint256",
          "name": "",
          "type": "uint256"
        }
      ],
      "stateMutability": "view",
      "type": "function"
    },
    {
      "inputs": [
        {
          "internalType": "address",
          "name": "",
          "type": "address"
        },
        {
          "internalType": "uint256",
          "name": "",
          "type": "uint256"
        }
      ],
      "name": "userBids",
      "outputs": [
        {
          "internalType": "uint256",
          "name": "",
          "type": "uint256"
        }
      ],
      "stateMutability": "view",
      "type": "function"
    },
    {
      "inputs": [
        {
          "internalType": "address",
          "name": "to",
          "type": "address"
        }
      ],
      "name": "withdrawFees",
      "outputs": [],
      "stateMutability": "nonpayable",
      "type": "function"
    }
  ],
  "bytecode": "0x60a060405260fa6006553480156200001657600080fd5b50604051620028473803806200284783398101604081905262000039916200012e565b600160005533806200006657604051631e4fbdf760e01b8152600060048201526024015b60405180910390fd5b6200007181620000dc565b506001600160a01b038116620000ca5760405162461bcd60e51b815260206004820152601460248201527f496e76616c69642055534443206164647265737300000000000000000000000060448201526064016200005d565b6001600160a01b031660805262000160565b600180546001600160a01b038381166001600160a01b0319831681179093556040519116919082907f8be0079c531659141344cd1fd0a4f28419497f9722a3daafe3b4186f6b6457e090600090a35050565b6000602082840312156200014157600080fd5b81516001600160a01b03811681146200015957600080fd5b9392505050565b6080516126af620001986000396000818161016c01528181610412015281816104f3015281816113ea015261159701526126af6000f3fe608060405234801561001057600080fd5b506004361061014d5760003560e01c806396ec50c3116100c3578063c8522da51161007c578063c8522da514610337578063d6e6eb9f1461034a578063e71f7b1514610353578063f2fde38b14610376578063fc52848214610389578063ff3ad0b41461039257600080fd5b806396ec50c3146102cf5780639979ef45146102e2578063a45a4897146102f5578063b4fbe80a14610308578063bc063e1a1461031b578063c55d0f561461032457600080fd5b80636759789f116101155780636759789f146101fc578063715018a61461021c578063787dce3d1461022457806378bd7935146102375780638cd42991146102ab5780638da5cb5b146102be57600080fd5b8063164e68de146101525780633e413bee146101675780633ef14cc8146101ab5780634b9f32be146101bd578063571a26a0146101d0575b600080fd5b61016561016036600461206b565b6103a5565b005b61018e7f000000000000000000000000000000000000000000000000000000000000000081565b6040516001600160a01b0390911681526020015b60405180910390f35b6005545b6040519081526020016101a2565b6101af6101cb3660046120d6565b6105a8565b6101e36101de366004612151565b610a30565b6040516101a29d9c9b9a999897969594939291906121b0565b61020f61020a36600461206b565b610bc6565b6040516101a29190612256565b610165610c32565b610165610232366004612151565b610c46565b61024a610245366004612151565b610c94565b604080516001600160a01b039b8c168152998b1660208b01528901979097526060880195909552608087019390935290151560a0860152151560c085015290931660e0830152610100820192909252610120810191909152610140016101a2565b6101af6102b9366004612151565b610f60565b6001546001600160a01b031661018e565b6101af6102dd36600461229a565b6111ba565b6101656102f0366004612151565b6111eb565b6101656103033660046122c4565b611665565b6101af61031636600461229a565b6118f7565b6101af6103e881565b6101af610332366004612151565b611913565b610165610345366004612151565b611ba7565b6101af60065481565b610366610361366004612151565b611cce565b60405190151581526020016101a2565b61016561038436600461206b565b611f01565b6101af60055481565b61020f6103a036600461206b565b611f3c565b6103ad611fa6565b6001600160a01b0381166103fa5760405162461bcd60e51b815260206004820152600f60248201526e496e76616c6964206164647265737360881b60448201526064015b60405180910390fd5b6040516370a0823160e01b81523060048201526000907f00000000000000000000000000000000000000000000000000000000000000006001600160a01b0316906370a0823190602401602060405180830381865afa158015610461573d6000803e3d6000fd5b505050506040513d601f19601f820116820180604052508101906104859190612310565b9050600081116104cd5760405162461bcd60e51b81526020600482015260136024820152724e6f206665657320746f20776974686472617760681b60448201526064016103f1565b60405163a9059cbb60e01b81526001600160a01b038381166004830152602482018390527f0000000000000000000000000000000000000000000000000000000000000000169063a9059cbb906044016020604051808303816000875af115801561053c573d6000803e3d6000fd5b505050506040513d601f19601f820116820180604052508101906105609190612329565b6105a45760405162461bcd60e51b8152602060048201526015602482015274119959481dda5d1a191c985dd85b0819985a5b1959605a1b60448201526064016103f1565b5050565b60006001600160a01b0388166106005760405162461bcd60e51b815260206004820152601760248201527f496e76616c696420657363726f7720636f6e747261637400000000000000000060448201526064016103f1565b8587116106455760405162461bcd60e51b8152602060048201526013602482015272496e76616c69642070726963652072616e676560681b60448201526064016103f1565b6000861161068d5760405162461bcd60e51b81526020600482015260156024820152740456e64207072696365206d757374206265203e203605c1b60448201526064016103f1565b6000851180156106a0575062093a808511155b6106df5760405162461bcd60e51b815260206004820152601060248201526f24b73b30b634b210323ab930ba34b7b760811b60448201526064016103f1565b836107225760405162461bcd60e51b8152602060048201526013602482015272092dcecc2d8d2c840e6cac6e4cae840d0c2e6d606b1b60448201526064016103f1565b6000889050806001600160a01b031663a98426106040518163ffffffff1660e01b8152600401602060405180830381865afa158015610765573d6000803e3d6000fd5b505050506040513d601f19601f820116820180604052508101906107899190612329565b6107d55760405162461bcd60e51b815260206004820152601960248201527f457363726f772063616e6e6f742062652072657665616c65640000000000000060448201526064016103f1565b60058054600091826107e683612361565b919050559050604051806101a001604052808b6001600160a01b03168152602001336001600160a01b031681526020018a815260200189815260200142815260200188815260200160405180602001604052806000815250815260200187815260200160011515815260200160001515815260200160006001600160a01b031681526020016000815260200186868080601f016020809104026020016040519081016040528093929190818152602001838380828437600092018290525093909452505083815260026020818152604092839020855181546001600160a01b03199081166001600160a01b03928316178355928701516001830180549094169116179091559184015190820155606083015160038201556080830151600482015560a0830151600582015560c083015190915060068201906109289082612412565b5060e082015160078201556101008083015160088301805461012086015161014087015161ffff1990921693151561ff001916939093179215159093029190911762010000600160b01b031916620100006001600160a01b03909316929092029190911790556101608201516009820155610180820151600a8201906109ae9082612412565b505033600081815260036020908152604080832080546001810182559084529282902090920185905581518d81529081018c90529081018a90526001600160a01b038d16925083907f06b9e486c68303eb64052e0493f906f3d93a1b7149b6b8dcff221aebd16c35139060600160405180910390a49998505050505050505050565b600260208190526000918252604090912080546001820154928201546003830154600484015460058501546006860180546001600160a01b039687169890961696949593949293919291610a8390612390565b80601f0160208091040260200160405190810160405280929190818152602001828054610aaf90612390565b8015610afc5780601f10610ad157610100808354040283529160200191610afc565b820191906000526020600020905b815481529060010190602001808311610adf57829003601f168201915b50505050600783015460088401546009850154600a860180549596939560ff808516965061010085041694620100009094046001600160a01b0316939190610b4390612390565b80601f0160208091040260200160405190810160405280929190818152602001828054610b6f90612390565b8015610bbc5780601f10610b9157610100808354040283529160200191610bbc565b820191906000526020600020905b815481529060010190602001808311610b9f57829003601f168201915b505050505090508d565b6001600160a01b038116600090815260046020908152604091829020805483518184028101840190945280845260609392830182828015610c2657602002820191906000526020600020905b815481526020019060010190808311610c12575b50505050509050919050565b610c3a611fa6565b610c446000611fd3565b565b610c4e611fa6565b6103e8811115610c8f5760405162461bcd60e51b815260206004820152600c60248201526b08ccaca40e8dede40d0d2ced60a31b60448201526064016103f1565b600655565b6000806000806000806000806000808a6005548110610cc55760405162461bcd60e51b81526004016103f1906124d2565b60008c815260026020818152604080842081516101a08101835281546001600160a01b0390811682526001830154169381019390935292830154908201526003820154606082015260048201546080820152600582015460a082015260068201805491929160c084019190610d3990612390565b80601f0160208091040260200160405190810160405280929190818152602001828054610d6590612390565b8015610db25780601f10610d8757610100808354040283529160200191610db2565b820191906000526020600020905b815481529060010190602001808311610d9557829003601f168201915b505050918352505060078201546020820152600882015460ff80821615156040840152610100820416151560608301526201000090046001600160a01b03166080820152600982015460a0820152600a8201805460c090920191610e1590612390565b80601f0160208091040260200160405190810160405280929190818152602001828054610e4190612390565b8015610e8e5780601f10610e6357610100808354040283529160200191610e8e565b820191906000526020600020905b815481529060010190602001808311610e7157829003601f168201915b505050505081525050905080600001519b5080602001519a508060400151995080606001519850306001600160a01b0316638cd429918e6040518263ffffffff1660e01b8152600401610ee391815260200190565b602060405180830381865afa158015610f00573d6000803e3d6000fd5b505050506040513d601f19601f82011682018060405250810190610f249190612310565b97508061010001519650806101200151955080610140015194508061016001519350610f4f8d611913565b925050509193959799509193959799565b6000816005548110610f845760405162461bcd60e51b81526004016103f1906124d2565b600083815260026020818152604080842081516101a08101835281546001600160a01b0390811682526001830154169381019390935292830154908201526003820154606082015260048201546080820152600582015460a082015260068201805491929160c084019190610ff890612390565b80601f016020809104026020016040519081016040528092919081815260200182805461102490612390565b80156110715780601f1061104657610100808354040283529160200191611071565b820191906000526020600020905b81548152906001019060200180831161105457829003601f168201915b505050918352505060078201546020820152600882015460ff80821615156040840152610100820416151560608301526201000090046001600160a01b03166080820152600982015460a0820152600a8201805460c0909201916110d490612390565b80601f016020809104026020016040519081016040528092919081815260200182805461110090612390565b801561114d5780601f106111225761010080835404028352916020019161114d565b820191906000526020600020905b81548152906001019060200180831161113057829003601f168201915b5050505050815250509050806101000151158061116c57508061012001515b1561117b5760009250506111b4565b60008160a0015182608001516111919190612502565b90508042106111a5576000935050506111b4565b6111af428261251b565b935050505b50919050565b600460205281600052604060002081815481106111d657600080fd5b90600052602060002001600091509150505481565b6111f3612025565b8060055481106112155760405162461bcd60e51b81526004016103f1906124d2565b600082815260026020526040902060080154829060ff1661126d5760405162461bcd60e51b815260206004820152601260248201527141756374696f6e206e6f742061637469766560701b60448201526064016103f1565b600081815260026020526040902060080154610100900460ff16156112cc5760405162461bcd60e51b8152602060048201526015602482015274105d58dd1a5bdb88185b1c9958591e48195b991959605a1b60448201526064016103f1565b600081815260026020526040902060058101546004909101546112ef9190612502565b421061132f5760405162461bcd60e51b815260206004820152600f60248201526e105d58dd1a5bdb88195e1c1a5c9959608a1b60448201526064016103f1565b600083815260026020526040902060018101546001600160a01b0316330361138d5760405162461bcd60e51b815260206004820152601160248201527014d95b1b195c8818d85b9b9bdd08189a59607a1b60448201526064016103f1565b600061139885611913565b90506000612710600654836113ad919061252e565b6113b79190612545565b905060006113c58284612502565b6040516323b872dd60e01b8152336004820152306024820152604481018290529091507f00000000000000000000000000000000000000000000000000000000000000006001600160a01b0316906323b872dd906064016020604051808303816000875af115801561143b573d6000803e3d6000fd5b505050506040513d601f19601f8201168201806040525081019061145f9190612329565b6114a25760405162461bcd60e51b81526020600482015260146024820152731554d110c81d1c985b9cd9995c8819985a5b195960621b60448201526064016103f1565b60088401805462010000339081026001600160b01b03199092169190911761010017909155600985018490556000818152600460209081526040808320805460018101825590845291909220018990555188907f51db8e23b3f4479b162fd48823b8402895442b8f6cfd94f66239391881ec7b6f9061152d9087904290918252602082015260400190565b60405180910390a3604051838152339088907fd2aa34a4fdbbc6dff6a3e56f46e0f3ae2a31d7785ff3487aa5c95c642acea5019060200160405180910390a3600184015460405163a9059cbb60e01b81526001600160a01b039182166004820152602481018590527f00000000000000000000000000000000000000000000000000000000000000009091169063a9059cbb906044016020604051808303816000875af11580156115e2573d6000803e3d6000fd5b505050506040513d601f19601f820116820180604052508101906116069190612329565b6116525760405162461bcd60e51b815260206004820152601860248201527f5061796d656e7420746f2073656c6c6572206661696c6564000000000000000060448201526064016103f1565b5050505050506116626001600055565b50565b61166d612025565b82600554811061168f5760405162461bcd60e51b81526004016103f1906124d2565b60008481526002602052604090206008810154610100900460ff166116ea5760405162461bcd60e51b8152602060048201526011602482015270105d58dd1a5bdb881b9bdd08195b991959607a1b60448201526064016103f1565b60088101546201000090046001600160a01b03166117365760405162461bcd60e51b81526020600482015260096024820152682737903bb4b73732b960b91b60448201526064016103f1565b60018101546001600160a01b031633148061175b57506001546001600160a01b031633145b6117a75760405162461bcd60e51b815260206004820181905260248201527f4f6e6c792073656c6c6572206f72206f776e65722063616e2072656c6561736560448201526064016103f1565b600084846040516020016117bc929190612567565b604051602081830303815290604052805190602001209050816007015481146118185760405162461bcd60e51b815260206004820152600e60248201526d125b9d985b1a59081cd958dc995d60921b60448201526064016103f1565b60068201611827858783612577565b50815460088301546040516309946e5d60e31b81526001600160a01b03928316928392634ca372e89261186b928b928b926201000090910490911690600401612638565b600060405180830381600087803b15801561188557600080fd5b505af1158015611899573d6000803e3d6000fd5b505050600884015484546040516001600160a01b03620100009093048316935091169089907ffd7f9968b90c2f39997b08b69b3c78d40df681dec28b3eec202eff456c3ad2cb90600090a4505050506118f26001600055565b505050565b600360205281600052604060002081815481106111d657600080fd5b60008160055481106119375760405162461bcd60e51b81526004016103f1906124d2565b600083815260026020818152604080842081516101a08101835281546001600160a01b0390811682526001830154169381019390935292830154908201526003820154606082015260048201546080820152600582015460a082015260068201805491929160c0840191906119ab90612390565b80601f01602080910402602001604051908101604052809291908181526020018280546119d790612390565b8015611a245780601f106119f957610100808354040283529160200191611a24565b820191906000526020600020905b815481529060010190602001808311611a0757829003601f168201915b505050918352505060078201546020820152600882015460ff80821615156040840152610100820416151560608301526201000090046001600160a01b03166080820152600982015460a0820152600a8201805460c090920191611a8790612390565b80601f0160208091040260200160405190810160405280929190818152602001828054611ab390612390565b8015611b005780601f10611ad557610100808354040283529160200191611b00565b820191906000526020600020905b815481529060010190602001808311611ae357829003601f168201915b50505050508152505090508061010001511580611b1f57508061012001515b15611b3057610160015191506111b4565b6000816080015142611b42919061251b565b90508160a001518110611b5b57506060015191506111b4565b60008260a001518284606001518560400151611b77919061251b565b611b81919061252e565b611b8b9190612545565b9050808360400151611b9d919061251b565b9695505050505050565b806005548110611bc95760405162461bcd60e51b81526004016103f1906124d2565b6000828152600260205260409020600881015460ff16611c205760405162461bcd60e51b815260206004820152601260248201527141756374696f6e206e6f742061637469766560701b60448201526064016103f1565b80600501548160040154611c349190612502565b421015611c795760405162461bcd60e51b8152602060048201526013602482015272105d58dd1a5bdb881b9bdd08195e1c1a5c9959606a1b60448201526064016103f1565b60088101805461ffff191661010017905560405160009084907fd2aa34a4fdbbc6dff6a3e56f46e0f3ae2a31d7785ff3487aa5c95c642acea50190611cc19084815260200190565b60405180910390a3505050565b6000816005548110611cf25760405162461bcd60e51b81526004016103f1906124d2565b600083815260026020818152604080842081516101a08101835281546001600160a01b0390811682526001830154169381019390935292830154908201526003820154606082015260048201546080820152600582015460a082015260068201805491929160c084019190611d6690612390565b80601f0160208091040260200160405190810160405280929190818152602001828054611d9290612390565b8015611ddf5780601f10611db457610100808354040283529160200191611ddf565b820191906000526020600020905b815481529060010190602001808311611dc257829003601f168201915b505050918352505060078201546020820152600882015460ff80821615156040840152610100820416151560608301526201000090046001600160a01b03166080820152600982015460a0820152600a8201805460c090920191611e4290612390565b80601f0160208091040260200160405190810160405280929190818152602001828054611e6e90612390565b8015611ebb5780601f10611e9057610100808354040283529160200191611ebb565b820191906000526020600020905b815481529060010190602001808311611e9e57829003601f168201915b50505050508152505090508061010001518015611edb5750806101200151155b8015611ef957508060a001518160800151611ef69190612502565b42105b949350505050565b611f09611fa6565b6001600160a01b038116611f3357604051631e4fbdf760e01b8152600060048201526024016103f1565b61166281611fd3565b6001600160a01b038116600090815260036020908152604091829020805483518184028101840190945280845260609392830182828015610c265760200282019190600052602060002090815481526020019060010190808311610c125750505050509050919050565b6001546001600160a01b03163314610c445760405163118cdaa760e01b81523360048201526024016103f1565b600180546001600160a01b038381166001600160a01b0319831681179093556040519116919082907f8be0079c531659141344cd1fd0a4f28419497f9722a3daafe3b4186f6b6457e090600090a35050565b60026000540361204857604051633ee5aeb560e01b815260040160405180910390fd5b6002600055565b80356001600160a01b038116811461206657600080fd5b919050565b60006020828403121561207d57600080fd5b6120868261204f565b9392505050565b60008083601f84011261209f57600080fd5b50813567ffffffffffffffff8111156120b757600080fd5b6020830191508360208285010111156120cf57600080fd5b9250929050565b600080600080600080600060c0888a0312156120f157600080fd5b6120fa8861204f565b96506020880135955060408801359450606088013593506080880135925060a088013567ffffffffffffffff81111561213257600080fd5b61213e8a828b0161208d565b989b979a50959850939692959293505050565b60006020828403121561216357600080fd5b5035919050565b6000815180845260005b8181101561219057602081850181015186830182015201612174565b506000602082860101526020601f19601f83011685010191505092915050565b6001600160a01b038e811682528d166020820152604081018c9052606081018b9052608081018a905260a081018990526101a060c082018190526000906121f99083018a61216a565b8860e084015287151561010084015261221761012084018815159052565b6001600160a01b03861661014084015284610160840152828103610180840152612241818561216a565b9150509e9d5050505050505050505050505050565b6020808252825182820181905260009190848201906040850190845b8181101561228e57835183529284019291840191600101612272565b50909695505050505050565b600080604083850312156122ad57600080fd5b6122b68361204f565b946020939093013593505050565b6000806000604084860312156122d957600080fd5b83359250602084013567ffffffffffffffff8111156122f757600080fd5b6123038682870161208d565b9497909650939450505050565b60006020828403121561232257600080fd5b5051919050565b60006020828403121561233b57600080fd5b8151801515811461208657600080fd5b634e487b7160e01b600052601160045260246000fd5b6000600182016123735761237361234b565b5060010190565b634e487b7160e01b600052604160045260246000fd5b600181811c908216806123a457607f821691505b6020821081036111b457634e487b7160e01b600052602260045260246000fd5b601f8211156118f257600081815260208120601f850160051c810160208610156123eb5750805b601f850160051c820191505b8181101561240a578281556001016123f7565b505050505050565b815167ffffffffffffffff81111561242c5761242c61237a565b6124408161243a8454612390565b846123c4565b602080601f831160018114612475576000841561245d5750858301515b600019600386901b1c1916600185901b17855561240a565b600085815260208120601f198616915b828110156124a457888601518255948401946001909101908401612485565b50858210156124c25787850151600019600388901b60f8161c191681555b5050505050600190811b01905550565b602080825260169082015275105d58dd1a5bdb88191bd95cc81b9bdd08195e1a5cdd60521b604082015260600190565b808201808211156125155761251561234b565b92915050565b818103818111156125155761251561234b565b80820281158282048414176125155761251561234b565b60008261256257634e487b7160e01b600052601260045260246000fd5b500490565b8183823760009101908152919050565b67ffffffffffffffff83111561258f5761258f61237a565b6125a38361259d8354612390565b836123c4565b6000601f8411600181146125d757600085156125bf5750838201355b600019600387901b1c1916600186901b178355612631565b600083815260209020601f19861690835b8281101561260857868501358255602094850194600190920191016125e8565b50868210156126255760001960f88860031b161c19848701351681555b505060018560011b0183555b5050505050565b6040815282604082015282846060830137600060608483018101919091526001600160a01b03929092166020820152601f909201601f19169091010191905056fea26469706673582212204aaeea061301b6733e75303c26d85da91c1ff475b02d47ba48152c530ced855764736f6c63430008140033",
  "linkReferences": {},
  "deployedLinkReferences": {}
}